:020000040800F2
:10000000580A0020890100080D230008C51E0008B9
:1000100011220008C303000899280008000000000E
:10002000000000000000000000000000FD230008A8
:10003000A9040008000000000F230008FF230008A7
:10004000A3010008A3010008A3010008A301000800
:10005000A3010008A3010008A3010008A3010008F0
:10006000A3010008A3010008A3010008A3010008E0
:10007000A3010008A3010008910400089D040008E2
:10008000A3010008A3010008A3010008A3010008C0
:10009000A3010008A3010008A3010008A3010008B0
:1000A000A301000865240008A3010008A3010008BB
:1000B000A3010008A3010008A3010008A301000890
:1000C000A3010008A3010008A3010008A301000880
:1000D000A30100088D280008A3010008A30100085F
:1000E000A3010008A3010008A301000800F002F822
:1000F00000F03AF80AA090E8000C82448344AAF188
:100100000107DA4501D100F02FF8AFF2090EBAE885
:100110000F0013F0010F18BFFB1A43F0010318473B
:10012000B02F0000D02F0000103A24BF78C878C14B
:10013000FAD8520724BF30C830C144BF04680C60ED
:10014000704700000023002400250026103A28BF35
:1001500078C1FBD8520728BF30C148BF0B60704739
:100160001FB51FBD10B510BD00F0F1F81146FFF727
:10017000F7FF02F0C1FB00F00FF903B4FFF7F2FF45
:1001800003BC00F017F90000094880470948004700
:10019000FEE7FEE7FEE7FEE7FEE7FEE7FEE7FEE737
:1001A000FEE7FEE704480549054A064B7047000094
:1001B00061240008ED00000858040020580A0020BF
:1001C0005806002058060020032A40F2308010F024
:1001D000030C00F0158011F8013BBCF1020F6244E2
:1001E00098BF11F801CB00F8013B38BF11F8013B73
:1001F000A2F1040298BF00F801CB38BF00F8013B20
:1002000011F0030300F07180083AC0F0088051F843
:10021000043B083A51F804CBA0E80810F5E7121D9A
:100220005CBF51F8043B40F8043BAFF30080D207B9
:1002300024BF11F8013B11F801CB48BF11F8012B85
:1002400024BF00F8013B00F801CB48BF00F8012BA8
:1002500070474FF000020429C0F0128010F0030C28
:1002600000F01B80CCF1040CBCF1020F18BF00F8A9
:10027000012BA8BF20F8022BA1EB0C0100F00DB858
:100280005FEAC17C24BF00F8012B00F8012B48BFB6
:1002900000F8012B70474FF0000200B5134694465A
:1002A0009646203922BFA0E80C50A0E80C50B1F1CE
:1002B0002001BFF4F7AF090728BFA0E80C5048BFE2
:1002C0000CC05DF804EB890028BF40F8042B08BF80
:1002D000704748BF20F8022B11F0804F18BF00F87C
:1002E000012B704770477047704710B5203AC0F037
:1002F0000B80B1E81850203AA0E81850B1E8185027
:10030000A0E81850BFF4F5AF5FEA027C24BFB1E863
:100310001850A0E8185044BF18C918C0BDE81040D4
:100320005FEA827C24BF51F8043B40F8043B08BFDD
:100330007047D20728BF31F8023B48BF11F8012BA4
:1003400028BF20F8023B48BF00F8012B70477546D4
:1003500000F02CF8AE4605006946534620F0070031
:10036000854618B020B5FFF71DFFBDE820404FF0CF
:1003700000064FF000074FF000084FF0000B21F08F
:100380000701AC46ACE8C009ACE8C009ACE8C0095C
:10039000ACE8C0098D46704710B50446AFF3008045
:1003A0002046BDE81040FFF7E8BE00000048704757
:1003B000F403002001491820ABBEFEE7260002002E
:1003C0007047FEE72DE9F84300246E211C48FFF733
:1003D00040FF1C4E4FF480752946304600F09EFACF
:1003E0000128F9D0DFF860904FF400480022414620
:1003F000484600F098FA124E4FF4FA67C4F16E00C6
:1004000085B2402D00D940250D4932192B466E3159
:100410000E48009700F030FE18B9601984B26E2CB7
:10042000ECD301224146484600F07DFA044964229B
:100430000A3101F1A400FFF7C7FE2046BDE8F883AA
:10044000E0020020000C01400008014020000020D4
:1004500070B500210D4B0C46502208461D5C95429C
:1004600001D20444491C401C80B26428F6D30846DB
:1004700002F05EFC0546204602F05AFC294602F0D6
:1004800041FB02F001FC00B270BD00008E030020B1
:10049000014800F07BB8000024020020014800F071
:1004A00075B80000E0010020704772B6FEE710B595
:1004B00090F821100022022905D00421816380F8E0
:1004C0002020012010BD01680B6823F00E030B6093
:1004D00001680B6823F001030B6090F84030C46B97
:1004E000012101FA03F3636080F8211080F82020D5
:1004F000104610BD10B590F821100024022903D039
:100500000421816301243DE001680A6822F00E02A3
:100510000A6001680A6822F001020A601A4A01684A
:10052000914201D1012121E0174A1432914201D1B7
:1005300010211BE0144A2832914201D1891515E09F
:10054000114A3C32914201D189140FE00E4A5032D7
:10055000914202D14FF4803108E00B4A643291425B
:1005600002D14FF4801101E04FF08071064A083A41
:100570005160012180F82110002180F82010416B8A
:1005800001B18847204610BD080002402DE9F05F08
:10059000C16B0C6801680B68D0F840C0042202FAF5
:1005A0000CF2494DDFF824A1494E4A4FDFF828B13B
:1005B000DFF828E122422CD05A072AD50A68920691
:1005C00003D40A6822F004020A600168A94201D13A
:1005D000042219E0514501D1402215E0B14202D177
:1005E0004FF4806210E0B94202D14FF480420BE038
:1005F000594502D14FF4802206E0714502D14FF4F3
:10060000800201E04FF080622F4908394A60C16AD8
:100610003BE04FF0020808FA0CF818EA040F4FF01C
:1006200000094FF0010235D05FEA837832D50B68BC
:100630009B0605D40B6823F00A030B6080F8212089
:100640000168A94201D1022219E0514501D12022BD
:1006500015E0B14202D14FF4007210E0B94202D16C
:100660004FF400520BE0594502D14FF4003206E03E
:10067000714502D14FF4001201E04FF000721249AF
:1006800008394A6080F82090816A00291AD0BDE8B4
:10069000F05F0847082505FA0CF5254212D01B0724
:1006A00010D50B6823F00E030B6090F84010C36B5D
:1006B00002FA01F15960826380F8212080F82090CD
:1006C000016BE2E7BDE8F09F080002401C00024019
:1006D0003000024044000240580002406C000240DA
:1006E00030B528B308C8134914221944B1FBF2F1FC
:1006F0008900C16310498163022141771A6843F67A
:10070000F0718A43D0E900142143D0E902452C431B
:1007100021430469214344692143846921431143EE
:10072000196000214163012242770177084630BDFC
:10073000012030BDF8FFFDBF000002402DE9F84F59
:10074000DFF8B8910024A9F1040B23460F2709F123
:10075000040AABF1040EC9E00125A5402A40AA42D3
:100760007DD1674ED1F804C0ACEB0608B44532D059
:1007700014DCBCF1030F3AD009DCBCF1000F2AD025
:10078000BCF1010F1CD0BCF1020F31D11DE0BCF156
:10079000110F17D0BCF1120F2AD119E0B8F5881F3C
:1007A00019D006DCB8F5803F15D0B8F5801F1FD1F1
:1007B00011E0B8F5001F0ED0B8F5041F18D10AE0FB
:1007C000CB6815E0CB681B1D12E0CB6808330FE047
:1007D000CB680C330CE08B682BB1012B4FF0080376
:1007E00003D0456104E0042302E0056100E000233A
:1007F000FF2A01D8064601E000F104064FEA84050D
:1008000001D9A5F12005D6F8008007FA05FC28EAF1
:100810000C0803FA05F548EA0508C6F800804D689B
:10082000ED0062D5374DAE6946F00106AE61AD69A7
:1008300024F0030605F001050095334D06EB050C89
:10084000DCF80850A607360F07FA06F825EA08056F
:10085000DFF8B880404503D14FF0000817E044E0CE
:10086000DFF8AC80404502D14FF001080FE0DFF81F
:10087000A480404502D14FF0020808E0DFF89880DC
:10088000404502D14FF0030801E04FF0040808FA98
:1008900006F848EA0508CCF808804D68D9F80060E9
:1008A000ED024D4601D5164300E096432E604D689B
:1008B000DAF80060AD02554601D5164300E09643D4
:1008C0002E604D68DBF80060AD035D4601D5164330
:1008D00000E096432E604D68DEF80060ED0375463B
:1008E00001D5164300E096432E60641C0D682A462D
:1008F000E5407FF431AFBDE8F88F00000804014007
:1009000000001110001002400000014000080140EA
:10091000000C0140001001400014014080680840B4
:1009200000D0012070470AB1016170470904FBE75C
:10093000014880687047000000000020024881687C
:10094000027811448160704700000020074810B50C
:10095000016841F010010160032000F075F80F20DC
:1009600000F006F800F024F8002010BD002002403E
:1009700070B50D4D04464FF47A712878B1FBF0F054
:100980000A490968B1FBF0F000F06EFC48B9102C80
:1009900007D200222146501E00F036F800206C607D
:1009A00070BD012070BD0000000000200C00002080
:1009B0000C4808B5816941F001018161816901F04C
:1009C00001010091C16941F08051C161C06900F02D
:1009D000805000900448416821F0E06141F00071CE
:1009E000416008BD0010024000000140002809DB02
:1009F00000F01F02012191404009800000F1E02039
:100A0000C0F8001170470000F0B40E4B1B680C4694
:100A1000C3F30223C3F10705042D00D90425191DD2
:100A2000072901D2002300E0DB1E012606FA05F1AA
:100A3000491E214099409E40761E16403143F0BC2D
:100A400001F02BBF0CED00E0064900F0070208683A
:100A50004FF6FF03184040EA0220034A10430860A3
:100A6000704700000CED00E00000FA052DE9F047AA
:100A70000F46050061D0434E306800F00700B842D1
:100A800009D2306820F0070038433060306800F049
:100A90000700B84251D128683B4C810712D5400766
:100AA00003D5606840F4E06060602878000703D5F3
:100AB000606840F4605060606068A96820F0F000F1
:100AC000084360602878C00728D06868012810D0E3
:100AD0002168022810D0890700292EDA616821F0E8
:100AE000030101436160FFF723FF804641F288392B
:100AF0000DE021688903EFE78901EDE7FFF718FFB3
:100B0000A0EB0801494502D90320BDE8F0876068E1
:100B1000696800F00C00B0EB810FEFD1306800F095
:100B20000700B8420BD9306820F007003843306026
:100B3000306800F00700B84201D00120E5E72878CE
:100B4000400705D56068E96820F4E060084360600C
:100B50002878000706D56068296920F4605040EACB
:100B6000C100606000F038F86168084AC1F3031101
:100B7000515CC8400649086006480068FFF7F8FE67
:100B80000020C2E70020024000100240B8300008F8
:100B90000C00002004000020044805490068496852
:100BA000044AC1F30221515CC84070470C00002088
:100BB00000100240C8300008044805490068496830
:100BC000044AC1F3C221515CC84070470C000020A8
:100BD00000100240C83000080E4A51680E4801F06B
:100BE0000C03042B11D0082B0FD10C48C1F3834305
:100BF000C903C05C0AD55168084AC1F34041921E3E
:100C0000515C054A5043B0FBF1F07047044948433A
:100C1000704700000010024000127A00A83000085F
:100C200000093D002DE9F84F040070D02078C04D38
:100C3000C00749D06868C0F38100012807D0686800
:100C4000C0F38100022809D16868C00306D528686E
:100C5000800339D560680028E7D035E06068B0F5DA
:100C6000803F0BD010B1B0F5A02F11D0286820F430
:100C700080302860286820F4802002E0286840F452
:100C800080302860606890B1FFF752FE06460AE0A7
:100C9000286840F480202860F0E700BFFFF748FE96
:100CA000801B642873D828688003F7D50CE0FFF711
:100CB0003FFE064605E000BFFFF73AFE801B6428B2
:100CC000F0D828688003F7D420789A4E80074FF038
:100CD00001094FF0000839D5686810F00C0F07D0F3
:100CE0006868C0F38100022809D16868C00306D48F
:100CF0002868800714D52069012808D110E02069F0
:100D0000B0B1C6F80090FFF713FE074605E00AE110
:100D1000FFF70EFEC01B0228C4D828688007F7D54D
:100D20002868616920F0F80040EAC10028600DE001
:100D3000C6F80080FFF7FCFD074604E0FFF7F8FD6A
:100D4000C01B022823D828688007F7D42078000722
:100D50002CD57948A169D9B1C0F80090FFF7E8FD1A
:100D6000074604E0FFF7E4FDC01B02280FD8686ABD
:100D70008007F7D571484FF4FA510068B0FBF1F0E5
:100D8000009000BF0098411E0091FAD20EE080E072
:100D9000C0F80080FFF7CCFD074604E0FFF7C8FD70
:100DA000C01B022875D8686A8007F7D420784007EE
:100DB00060D5E8690027C00008D4E86940F0805099
:100DC000E861E869012700F0805000905C48016804
:100DD000C90513D40168834641F480710160FFF7AF
:100DE000A7FD824606E000BFFFF7A2FDA0EB0A00C8
:100DF00064284ED8DBF80000C005F5D5E06801286E
:100E00000AD008B1052813D0286A20F00100286212
:100E1000286A20F0040002E0286A40F001002862FD
:100E2000E06841F2883B98B1FFF782FD82460BE013
:100E3000286A40F004002862EEE700BFFFF778FD63
:100E4000A0EB0A0159455AD8286A8007F6D50CE06C
:100E5000FFF76EFD824605E0FFF76AFDA0EB0A0191
:100E600059454CD8286A8007F6D41FB1E86920F0AC
:100E70008050E861E06988B36968C1F381010229A3
:100E800044D00228C6F8608004D0FFF751FD044624
:100E900038E034E0FFF74CFD074604E0FFF748FD7B
:100EA000C01B02282BD828688001F7D4206AB0F52F
:100EB000803F05D16868A16820F40030084368606D
:100EC000D4E908010843696821F474110843686093
:100ED000C6F86090FFF72CFD044606E025E000BF51
:100EE000FFF726FD001B022809D828688001F7D5E6
:100EF0001BE000BFFFF71CFD001B022802D90320E6
:100F0000BDE8F88F28688001F4D40EE00128F7D0FE
:100F10006868226A00F48031914204D1616A00F469
:100F20007010884201D00120EAE70020E8E70000C5
:100F30000010024000004242800442420C000020A7
:100F40000070004070B5040009D0606A002540B10F
:100F500025616561A56294F8510040B10CE0012063
:100F600070BD6068B0F5827FF4D0E561F2E784F887
:100F70005050204600F040F8022084F851002068CC
:100F8000016821F040010160A088218900F482708D
:100F900001F404410843A18901F400610843217C64
:100FA00001F002010843217D01F001010843218B7A
:100FB00001F400710843217F01F03801084394F8DF
:100FC000201001F080010843218D01F400510843F5
:100FD00021680860A069042101EA10402168486086
:100FE0002068C16921F40061C1616565012084F850
:100FF0005100002070BD000030B585B00024009481
:101000000194029403940068174988422AD1174832
:10101000816941F480518161816901F480510491B9
:10102000816941F0080181618069114D00F008007B
:10103000049028200090022001900320039069462C
:101040002846FFF77BFB1020CDE9000469462846BF
:101050000294FFF773FB0748416841F0E06141F0FB
:101060000101416005B030BD003001400010024078
:10107000000C0140000001402DE9FF4F81B01D46EA
:10108000934604464FF001090E9EFFF751FC0746B8
:1010900094F851006168012806D0B1F5827F3CD1F7
:1010A000A168C9BB042838D10298002871D0BBF1CF
:1010B000000FFBD0002DF9D094F8500001282CD05F
:1010C0004FF0010A84F850A094F85100042802D08F
:1010D000052084F851004FF00008C4F85480C4F88B
:1010E00038B0E587A58702992163E586A586C4F80F
:1010F0004080C4F8448020680168490603D4016830
:1011000041F040010160E068B0F5006F606808D010
:10111000F0B3012D49D081E0FFE7022005B0BDE822
:10112000F08F08B1012D39D1206B21680088C8608B
:10113000206B801C2063E08E401EE0862EE020683D
:10114000816889070FD5E18E69B1B9F1010F0AD124
:10115000216B0988C160206B801C2063E08E401EDB
:10116000E0864FF0000920688168C9070CD0E18F44
:1011700051B1C068A16B0880A06B801CA063E08F98
:10118000401EE0874FF00109FFF7D2FBC01B01E0D2
:101190000BE067E0B04201D3701C50D1E08E002814
:1011A000CDD1E08F0028CAD13EE0206B21680078C5
:1011B0000873206B401C2063E08E401EE0862DE00B
:1011C0002068816889070FD5E18E69B1B9F1010FF7
:1011D0000AD1216B09780173206B401C2063E08EDB
:1011E000401EE0864FF0000920688168C9070CD0D6
:1011F000E18F51B1C068A16B0870A06B401CA06367
:10120000E08F401EE0874FF00109FFF791FBC01B04
:10121000B04202D3701C01D011E086B1E08E0028EC
:10122000CED1E08F0028CBD13A463146204601F09E
:101230006FF850B12020606584F8508012E084F887
:1012400051A084F85080032068E7A06818B920688E
:10125000C1688068009084F851A084F85080606D67
:101260000028F1D0012059E710B5401EB0F1807F71
:1012700001D3012010BD4FF0E02460610F21601701
:1012800001F00BFB0020A06107202061002010BDB1
:101290007047704770B590F83C20012A26D0012491
:1012A00080F83C40022280F83D2003685A689D681F
:1012B00022F070060A6832435A600D4B02689A4267
:1012C00008D0B2F1804F05D00A4B9A4202D00A4BA7
:1012D0009A4204D1496825F080031943916080F84F
:1012E0003D40002180F83C10084670BD022070BDD2
:1012F000002C0140000400400008004010B504002C
:1013000003D094F83D0010B107E0012010BD00208B
:1013100084F83C00204600F01FF8022084F83D00CD
:10132000211D206801F0A4F8012084F8460084F80B
:101330003E0084F83F0084F8400084F8410084F8BF
:10134000420084F8430084F8440084F8450084F89F
:101350003D00002010BD000008B500680B49884220
:1013600012D10B48816941F40061816180690022DA
:1013700000F40060009011461920FFF745FBBDE81E
:1013800008401920FFF732BB08BD0000002C0140C7
:101390000010024090F83D10012901D00120704753
:1013A000022180F83D100168CA6842F00102CA605B
:1013B00000680B49884208D0B0F1804F05D0094938
:1013C000884202D00849884204D1816801F00701AF
:1013D000062903D0016841F0010101600020704737
:1013E000002C0140000400400008004070B5044695
:1013F00090F83C000025012817D0012684F83C60B5
:10140000022084F83D002068826822F0770222F4EE
:101410007F4282600868502838D00DDC20284FD0E9
:1014200005DC90B3102811D14AE0022070BD3028AD
:1014300046D040280AD13BE060282FD070280DD03C
:10144000B0F5805F03D0B0F5005F12D0012584F8BD
:101450003D60002084F83C00284670BDCB68D1E98F
:101460000121206801F04DF82068816841F0770182
:1014700009E0CB68D1E90121206801F042F8206839
:10148000816841F480418160E1E719E0CA684968F8
:10149000206801F0EBF85021206806E0CA6849682E
:1014A000206801F0F4F86021206801F034F8CEE7FC
:1014B000CA684968206801F0D9F840212068F4E73B
:1014C000226801461046F0E72DE9F0410D46040080
:1014D00003D094F83D0018B108E00120BDE8F08188
:1014E000002084F83C00204600F040F8022084F8F8
:1014F0003D002068816844F2070291438160211D0C
:10150000206800F0B5FF226890689169166A2B6820
:10151000AF69034340F20330814341EA0721A868E1
:10152000EF6908434FF6FC418843E96840EA072029
:10153000014328692F6A000140EA073008436968BF
:101540006D6926F0220646EA051529439360226854
:10155000906154F8460B0162012004F81F09E07500
:101560002076E0762077A0750020B7E700B585B03B
:101570000021009101910291039101681A48B1F193
:10158000804F1BD0194A914216D1C16941F0040124
:10159000C161C16901F004010491816941F0080150
:1015A00081618069694600F008000490C0200090C5
:1015B0000F4800BFFFF7C2F805B000BDC16941F098
:1015C0000101C161C16901F001010491816941F02A
:1015D000040181618069694600F0040004900320E1
:1015E00000900448E6E700000010024000080040B8
:1015F000000C01400008014070B590F83E600446C0
:1016000090F83F5090F8423090F84320022021B1EA
:1016100004290ED0012E1BD114E0012E18D1012B6C
:1016200016D184F83E0084F842000122002120688F
:1016300020E0012D0CD1012A0AD184F83F0084F862
:10164000430014E0012D03D1012B01D1012A01D067
:10165000012070BD84F83E0084F83F0084F8420009
:1016600084F8430001220021206800F03DFF0122A0
:101670000421206800F038FF2068016841F0010172
:101680000160002070BD70472DE9F04104460068FC
:10169000C66805694FF00007A90713D5B10711D532
:1016A000F91E0161012020772068806980072046AB
:1016B00002D0FFF7E8FF04E000F0A4F8204600F0B5
:1016C00049F92777680716D5700714D521686FF098
:1016D00004000861022020772068806910F4407FB0
:1016E000204602D0FFF7CFFF04E000F08BF8204641
:1016F00000F030F92777280715D5300713D5216872
:101700006FF008000861042020772068C069800716
:10171000204602D0FFF7B7FF04E000F073F8204640
:1017200000F018F92777E80616D5F00614D52168D9
:101730006FF010000861082020772068C06910F45D
:10174000407F204602D0FFF79EFF04E000F05AF8E9
:10175000204600F0FFF82777E80708D0F00706D00A
:1017600021686FF001000861204600F043F9280667
:1017700008D5300606D521686FF080000861204644
:10178000FFF786FD680608D5700606D521686FF05C
:1017900040000861204600F0B9F9A8060AD5B00655
:1017A00008D521686FF0200008612046BDE8F041AF
:1017B000FFF76FBDBDE8F08100B585B00021009155
:1017C00001910291039100680B49884211D10B48A5
:1017D000816941F0040181618069694600F004007B
:1017E0000490C02000900220019003900448FEF76E
:1017F000A5FF05B000BD000000040040001002403D
:1018000000080140704770B5044690F83C0000267F
:101810000D4601280FD0012084F83C006AB1042A4B
:101820001DD0082A2FD00C2A3FD00126002084F892
:101830003C00304670BD022070BD206800F074FE90
:101840002068816941F0080181612068816921F087
:1018500004018161206881692A69114311E02068CF
:1018600000F08AFE2068816941F40061816120688E
:10187000816921F480618161206881692A6941EA76
:1018800002218161D2E7206800F0A2FE2068C169D0
:1018900041F00801C1612068C16921F00401C16102
:1018A0002068C1692A69114311E0206800F0BCFE7C
:1018B0002068C16941F40061C1612068C16921F4F7
:1018C0008061C1612068C1692A6941EA0221C16160
:1018D000ACE710B5040003D094F83D0010B107E068
:1018E000012010BD002084F83C00204600F01EF8C6
:1018F000022084F83D00211D206800F0B9FD012080
:1019000084F8460084F83E0084F83F0084F84000E4
:1019100084F8410084F8420084F8430084F84400CD
:1019200084F8450084F83D00002010BD08B500682B
:101930000649884208D10648C16941F00201C161E7
:10194000C06900F00200009008BD000000040040E3
:10195000001002407047000010B50446022249B151
:1019600004290ED0082913D094F84100012816D07C
:10197000012010BD94F83E000128F9D184F83E20E2
:101980000FE094F83F000128F2D184F83F2008E0EE
:1019900094F840000128EBD184F8402001E084F85D
:1019A00041200122206800F09FFD0F4920688842F5
:1019B00003D1426C42F4004242642068884208D05D
:1019C000B0F1804F05D00949884202D008498842C9
:1019D00004D1816801F00701062903D0016841F0B4
:1019E00001010160002010BD002C014000040040F6
:1019F000000800402DE9F0473A4988426FD13A4843
:101A00000568686A394C00B2206001F079F9384FF6
:101A1000394601F077F8DFF8DC80414601F072F8D2
:101A2000DFF8D490494601F0CBF9DFF8D0A0514659
:101A300001F0C6F90026A0606E6231480568686A48
:101A400000B2606001F05CF9394601F05BF8414694
:101A500001F058F8494601F0B3F9514601F0B0F9E8
:101A6000E0606E62FEF7AEFCFEF7F2FC01F048F9B2
:101A7000244D01462861284600F0A8FF224E286A1E
:101A8000314600F0D1FF0146A5F1500000F09CFF67
:101A9000A5F15000A16800F099FFA5F15000006A7F
:101AA00001F0F2F801B2012000F0B4FB3046296ADF
:101AB00001F084FA0146A5F1280000F085FFA5F1A8
:101AC0002800E16800F082FFA5F12800006A01F01B
:101AD000DBF8BDE8F04701B2002000F09BBBBDE899
:101AE000F087000078000020500100201000002046
:101AF0000000B6440000204100007A44000070421B
:101B0000C0000020B802002000007A4370477047F0
:101B100070470000F8B5016804460868CA684B6958
:101B200010F00F0F4FF0000559D003F0010602F43A
:101B30009077374365D0C10705D0D10503D5616CD7
:101B400041F001016164410705D5D90703D0616CFB
:101B500041F002016164810705D5D90703D0616CAA
:101B600041F004016164010707D502F0200131430F
:101B700003D0616C41F008016164616C00293AD0C6
:101B8000800604D5900602D5204600F0C1FD2068ED
:101B90004069616CC0F38010090700D460B320462F
:101BA00000F08FFD20684069400621D52068143080
:101BB00050E8001F21F0400140E80012002AF5D152
:101BC000E06BA8B16D494163E06BFEF793FC002820
:101BD00011D0E06B416B01B0BDE8F04008478306CF
:101BE0000FD593060DD52046BDE8F84000F090BD16
:101BF0002046FFF78DFFF8BD2046FFF789FF65649B
:101C0000F8BD266B2023012E7CD1C6067AD5D606D8
:101C100078D508684868009048694FF00206400689
:101C200040D5E16B086840680004000CE8D0A28D44
:101C30008242E5D9E085886920282DD020680C30C3
:101C400050E8001F21F4807140E80012002AF5D10D
:101C50002068143050E8001F21F0010140E8001214
:101C6000002AF5D12068143050E8001F21F040010F
:101C700040E80012002AF5D184F84230256320683C
:101C80000C3050E8001F21F0100140E80012002A3B
:101C9000F5D1E06BFEF70BFC6663A08DE18D401A79
:101CA00081B22AE0A08DE18D401A81B2E08D00283A
:101CB000A6D00029A4D022680C3252E8000F20F4EC
:101CC000907042E80007002FF5D12068143050E8EA
:101CD000002F22F0010240E80027002FF5D184F800
:101CE0004230256320680C3050E8002F22F01002AB
:101CF00040E80023002BF5D166632046FFF707FF7D
:101D0000F8BDFFE705062BD5150629D594F8410047
:101D10002128F5D1A068B0F5805F01D12069B0B16C
:101D2000206A411C2162216800784860E08C401ED6
:101D30000004000CE084E3D12068C16821F0800138
:101D4000C1602068C16841F04001C160D8E7206AE5
:101D50000088C0F308004860206A801C2062E5E724
:101D60004006CDD55006CBD5CA68204622F04002A9
:101D7000CA6084F8413000F0A4F8C1E7B326000837
:101D800070B5040004D094F84100002510B106E0BD
:101D9000012070BD84F84050204600F023F8242034
:101DA00084F841002068C16821F40051C1602046D8
:101DB00000F010FD2068016921F490410161206864
:101DC000416921F02A0141612068C16841F4005154
:101DD000C1606564202084F8410084F84200656396
:101DE000002070BDF0B585B0002406460094019433
:101DF0000294039400682D49884254D12C4881698B
:101E000041F480418161816901F4804104918169DB
:101E100041F0040181618069264D00F004000490C6
:101E20004FF4007000900220019003200390694657
:101E30002846FEF783FC2815CDE9000469462846AC
:101E40000294FEF77BFC1D4D1B488027C5E900046A
:101E5000C5E902472C616C61AC612846EC61FEF774
:101E60003FFC08B1FEF721FBF5636E62134D12488B
:101E70004435143801C5102091C5104845F8104963
:101E800044306C61AC61EC61FEF72AFC08B1FEF7EE
:101E90000CFBB5630022114625206E62FEF7B4FDEF
:101EA0002520FEF7A3FD05B0F0BD0000003801407D
:101EB000001002400008014058000240E0010020EC
:101EC00070477047FEE700000D4808B5416941F0D2
:101ED000010141614069002200F0010000901146BB
:101EE0000E20FEF791FD0E20FEF780FD0022114628
:101EF0000F20FEF789FDBDE808400F20FEF776BDF4
:101F0000001002402DE9F04786B000242C480094D0
:101F1000019402940394816941F0200181618169F7
:101F200001F020010491816941F00401816181691E
:101F300001F004010491816941F008018161806927
:101F4000DFF8809000F0080004900022302148461D
:101F5000FEF7E9FCDFF870A0002203215046FEF7EF
:101F6000E2FC4FF40048012241464846FEF7DBFC04
:101F7000302001250226CDE90005CDE9024669465B
:101F80004846FEF7DBFB032700970396CDE9015493
:101F900069465046FEF7D2FBCDE90085CDE90257F0
:101FA00069464846FEF7CAFB2802CDE900046946A7
:101FB00050460294FEF7C2FB06B0BDE8F087000071
:101FC0000010024000080140000C0140104810B50C
:101FD0000E4901604FF48271416000218160C1604F
:101FE0004FF400720161C0E905120822C0E907211F
:101FF000416281620A21C162FEF7A4FF002803D07A
:10200000BDE81040FEF751BA10BD0000003001409D
:102010002000002010B586B00024184800940194D8
:102020000294039404941449059401604721C0E983
:10203000011442F20F71C0E903148021C0E9054187
:10204000FFF75CF908B1FEF730FA4FF480500090CA
:1020500069460A48FFF7CAF908B1FEF726FA049460
:1020600004A906480594FFF715F9002801D0FEF7EA
:102070001CFA06B010BD0000002C014078000020C2
:1020800010B58CB024216846FEF705F900241548E8
:1020900009944FF080410A94C0E900144FF6FF7193
:1020A000C0E90241046184610320CDE900040120FC
:1020B000CDE902040494CDE9054007946946094836
:1020C0000894FFF701FA08B1FEF7EFF9099409A99E
:1020D00004480A94FFF7DEF8002801D0FEF7E5F97E
:1020E0000CB010BDC000002010B58AB000240794C9
:1020F0001C2168460894FEF7CEF81B481949016078
:102100004721C0E9011440F2E731C0E903148021FE
:102110008161FFF7DEFB08B1FEF7C7F9079407A955
:1021200011480894FFF7B6F808B1FEF7BEF9602031
:10213000CDE900040294002269460B480494FFF79D
:1021400062FB08B1FEF7B1F9042269460648FFF7C1
:102150005AFB08B1FEF7A9F90348FFF72DFB0AB0B7
:1021600010BD0000000400400801002010B58CB034
:1021700024216846FEF78FF8002416480994144974
:102180000A94C0E900144FF6FF71C0E902410461EE
:1021900084610320CDE900040120CDE90204049408
:1021A000CDE90540079469460A480894FFF78CF981
:1021B00008B1FEF77AF9099409A906480A94FFF7CD
:1021C00069F8002801D0FEF770F90CB010BD0000CE
:1021D00000080040500100200C4810B50A49016079
:1021E0004FF4E1314160002181600C22C160C0E9FF
:1021F00004128161C161FFF7C3FD002803D0BDE86F
:102200001040FEF752B910BD00380140980100207F
:10221000FEE7000070B53A4C0D46A8B1012840D148
:10222000384E002D46DD02464FF002013046FEF7E3
:102230007AFB002201213046FEF775FB284600F0AC
:102240005FFD00F04BFB49E02F4E002D11DD4FF0FC
:1022500001024FF010013046FEF765FB00222021FD
:102260003046FEF760FB284600F04AFD00F036FBE2
:1022700013E017DA4FF000024FF010013046FEF77E
:1022800052FB012220213046FEF74DFB284600F08C
:1022900037FD00F023FB80F0004000F011FD2168C5
:1022A000486370BD012210213046FEF73CFB01223D
:1022B00020211FE017DA4FF000024FF002013046F4
:1022C000FEF731FB012211463046FEF72CFB284673
:1022D00000F016FD00F002FB80F0004000F0F0FC82
:1022E0002168886370BD012202213046FEF71BFB86
:1022F000012211463046BDE87040FEF714BB0000D5
:1023000008010020000C014000080140FEE7704772
:10231000F8B515460E460B460092044601220221EE
:1023200000F010F840B93346002280212046009585
:1023300000F008F8002804D0606D40F020006065CF
:102340000320F8BD2DE9F8431E4691468846044611
:10235000089DFEF7EDFA401B351AFEF7E9FA07462D
:1023600025480068C0F3CB30684338E0701C37D094
:10237000FEF7DEFAC01BA84203D215B1009860B385
:102380002CE02068416821F0E00141606068B0F510
:10239000827F0BD1A068B0F5004F02D0B0F5806FFE
:1023A00004D12068016821F040010160A06AB0F505
:1023B000005F09D12068016821F4005101602068A4
:1023C000016841F400510160012084F851000020AF
:1023D00084F850000320BDE8F8830025401E0090DB
:1023E0002068816838EA010004D000214945BDD148
:1023F0000020F0E70121F9E70C0000207047FEF70C
:102400009DBA30B58FB028216846FDF744FF1421EE
:102410000AA8FDF740FF01210804CDE900100024BF
:10242000029402250491CDE907504FF4E010099081
:102430006846FEF7F7FB08B172B6FEE70F20CDE95C
:102440000A054FF48060CDE90C4002210AA80E94E1
:10245000FEF70CFB002801D072B6FEE70FB030BDCE
:10246000704700000148FFF70FB900007800002016
:10247000F0B50268194B1A4C1A4D4FF0804798423C
:1024800005D0B84203D0A04201D0A84203D122F027
:1024900070064A683243984205D0B84203D0A04241
:1024A00001D0A84203D122F44074CA6822434C6987
:1024B00022F08002224302608A68C2620A68826255
:1024C000984201D109690163012141610169C9078C
:1024D00003D0016921F001010161F0BD002C014030
:1024E000000400400008004010B501F01F03012166
:1024F000046A99408C430462016A9A401143016264
:1025000010BD10B5846842EA032224F47F440A43D4
:102510002243826010BD826822F070020A4342F0BA
:10252000070181607047000030B5036A026A22F03B
:10253000010202624268846924F073050C682C432E
:1025400023F002058B682B430A4DA8420BD123F0E0
:102550000805CB6822F440722B434D6923F0040335
:1025600015438A692A434260846149684163036272
:1025700030BD0000002C014030B5026A036A23F030
:1025800010030362436884690D6824F4E64444EA56
:1025900005248D6822F0200242EA05120B4DA84264
:1025A0000ED1CD6822F0800242EA05124D6923F473
:1025B000406343EA85038D6922F0400243EA8503C4
:1025C0004360846149688163026230BD002C014030
:1025D00030B5036A026A22F4807202624268C469FA
:1025E00023F4007324F073050C682C438D6843EAD0
:1025F00005230C4DA8420ED1CD6823F4006343EAB5
:1026000005234D6922F4405242EA05128D6923F4F4
:10261000806342EA05124260C4614968C163036293
:1026200030BD0000002C014030B5046A026A22F47B
:10263000805202624268C3690D6823F4E64343EAAC
:1026400005238D6824F4005444EA0534064DA8425D
:1026500004D14D6922F4804242EA85124260C3618E
:1026600049680164046230BD002C014010B5036A62
:10267000046A24F001040462846924F0F00444EA4A
:10268000021423F00A020A438461026210BD10B5ED
:10269000036A046A24F010040462846923F0A0032E
:1026A00024F4704444EA023243EA01118261016277
:1026B00010BD10B5406A0021C185C184FFF728FA1A
:1026C00010BD01680C3151E8002F22F4907241E8EE
:1026D0000023002BF5D10168143151E8002F22F0BE
:1026E000010241E80023002BF5D1016B012909D13A
:1026F00001680C3151E8002F22F0100241E800235C
:10270000002BF5D1202180F8421000210163704791
:1027100008B590F84210222901D0022008BD826835
:102720004FF480539A4201D1016921B1816A9A42E2
:102730001BD04AB10AE00268816A5268C2F30802FB
:102740000A80816A891C08E0026972B102685268D5
:1027500002F07F020A70816A491C8162C18D491EA4
:102760000904090CC18503D01BE002685268F1E737
:102770000168CA6822F02002CA600168CA6822F4AF
:102780008072CA6001684A6922F001024A61202110
:1027900080F8421000214163026B012A03D0FFF749
:1027A0008FFB002008BD016301680C3151E8002F48
:1027B00022F0100241E80023002BF5D101680A68DD
:1027C000D20602D50A6849680091818DFFF79FF90A
:1027D000E7E7000070B5044600680169E26821F48B
:1027E0004051114301612169A068084361690843B0
:1027F0002168CA6841F20C639A430243CA602068A8
:102800004169A26921F44071114341611E49206868
:10281000884202D1FEF7D0F901E0FEF7BDF900EBE6
:10282000C00101EB0012606864218000B2FBF0F38C
:10283000B3FBF1F36FF018067343B2FBF0F5B2FB94
:10284000F0F605EB8305322303EB0515B5FBF1F537
:10285000B6FBF1F605F0F00505EB0615B2FBF0F658
:10286000B2FBF0F0B0FBF1F06FF01802504306EB52
:10287000800003EB0010B0FBF1F0216800F00F00C6
:102880002844886070BD0000003801400148FFF70F
:1028900041B9000098010020FEE70907090E002851
:1028A00004DB00F1E02080F80014704700F00F0016
:1028B00000F1E02080F8141D704770B50C46064604
:1028C00081F0004500F048FB00D3344628462146FD
:1028D00000F042FB00D22C46204670BD0449054A58
:1028E000884201DD084670479042FCD91046704787
:1028F00000C0794400C079C408B5FEF727F8FFF797
:1029000080FDFFF7FFFAFFF7DFFAFFF7EDFBFFF7B8
:10291000B7FBFFF761FCFFF77DFBFFF727FCFFF735
:1029200055FB00211748FFF717F804211548FFF75A
:1029300013F804211448FEF75FFE04211348FEF744
:102940005BFE1348FEF726FD134D144E114C2B462B
:102950001A4631461248009400F02AF82B461A46CF
:1029600031461048009400F023F800231A464FF037
:102970007F510D48009400F01BF80C490A4800F004
:1029800023F8FEE708010020C000002050010020CD
:10299000780000200000FA440000C0400000A04180
:1029A0006802002090020020B80200200000464289
:1029B00010B5029C80E80E0000210161C1604161F8
:1029C00081614462C16110BDC16070472DE9F04171
:1029D00004460161C06800F0F1FA01466061E069F7
:1029E00000F022F8E061616AFFF767FFE061D4E977
:1029F00005510746284600F0E1FAA16800F0E0F929
:102A000006463946606800F0DBF90746294620682B
:102A100000F0D6F9394600F007F8314600F004F826
:102A2000A5612062BDE8F08190EA010F48BF81F006
:102A3000004100F1CA82421A3CBF801A89184FEA4D
:102A4000D0524FF07F4C1CEA410FA2EBD15318BF7C
:102A50009CEA026F00F03B804FF0004C4CEA0020F3
:102A60004CEA012121FA03FC10EB0C0C1ED202F1FE
:102A7000FF325FEA1C2040EBC25038BF70471CF0A9
:102A80007F0F4FEA400C18BFBCF17F4F38BF704733
:102A9000C3F12003994008BF20F00100BCF17F4F33
:102AA00038BF7047A0F1C04000F051BA4FEA3C0077
:102AB000000A40EBC25028BF1CF0FF0F4FEA400C49
:102AC000E6D018BFBCF17F4F38BF7047EAE79CEAF9
:102AD000026F05D010EA5C0F08BF00F0004070479D
:102AE00010B500F0EEF900BF64FBBE3E401058BFC9
:102AF000C0F14040491058BFC1F140418142EFF35D
:102B0000008070474FF47F0C1CEAD0121EBF1CEAF5
:102B1000D11392EA0C0F93EA0C0F00F0858090EA33
:102B2000010F48BF42F4807240F4000C41F40000F1
:102B30002CF07F4120F07F4000B58142A2EB0302E0
:102B40000FF2081CACEB504EC0F100009EF800E004
:102B50004FEA4E0E00FB0EFC38BF49004FEA2C1C1A
:102B600002F5FA020CFB0EF34FEACE1E4FEA112CCF
:102B70004FEAC1210EEB635E42EB22420EFB0CFCDE
:102B80004FEA1C5300FB03114FEA112C4FEA0131AD
:102B90000EFB0CFC4FEADC4C00FB0C11C14228BFC1
:102BA00009184CEB03335DF804EB10EB410143EBE8
:102BB000C250B2F57C0F38BF704729D512F0F00F24
:102BC0001CBF00F1C04000F00040704700818283CC
:102BD0008485868788898B8C8D8E8F91929395962C
:102BE00097999A9C9D9FA0A2A3A5A7A8AAACAEB0B6
:102BF000B2B3B5B7B9BCBEC0C2C5C7C9CCCED1D4BB
:102C0000D7D9DCDFE2E6E9ECF0F3F7FAFE000000EA
:102C10004FEA400C0CF1807CBCF17E4F28BF70471E
:102C2000B0F1C04000F093B990EA010F0CEAD11363
:102C300048BF42F48072624538BF634507D213F43F
:102C40007F0F16D080EA010000F00040704710B5F9
:102C500000F037F9097EFC3E00F005B880EA01007B
:102C600000F00040704780EA010000F0004000F0F2
:102C70006EB912F47F0F04BF0248704780EA01006A
:102C800000F065B90000C07F41000B0ED3F19E0239
:102C900008D950F400034FEA032323FA02F048BF97
:102CA0004042704710B500F00CF900BF49922480F3
:102CB000002070476FF0004282EA20007047000059
:102CC000C10DD1F19E0206DB4FEA002343F0004321
:102CD00023FA02F07047004207D54FEA4001B1F1F4
:102CE000FE4F02D24FF00000704710B500F0E9F837
:102CF00049922480002070476FEA2000704700004E
:102D000010F0004148BF4042B0FA80F310FA03F2DD
:102D1000C3F19D030BD051EAC35101EB12205306BE
:102D200038BF704700F1010008BF20F00100704774
:102D3000B0FA80F310FA03F2C3F19D030AD0D9056B
:102D400001EB1220530638BF704700F1010008BFA5
:102D500020F001007047000050EA010C00F11380E0
:102D60001CF5000F58BFBCF5000F01D48842704716
:102D700007D710F5000F58BF11F5000F15D4884282
:102D80007047894270471CF5000F04D5BCF5000F51
:102D9000F7D5814270474FF0807C1CEB400F38BF65
:102DA0001CEB410F01D28142704710B500F089F849
:102DB000922449004FF000504FF08051FFF796BE2B
:102DC0004FF47F0C1CEAD0121EBF1CEAD11392EA0A
:102DD0000C0F93EA0C0F00F0478090EA010F48BFF8
:102DE00042F480724FF0004C4CEA00204CEA012182
:102DF00002EB0302A0FB0113A2F50002002918BF99
:102E000043F001035B0028BF4FEA330342EB224249
:102E10005FEA132C4CEBC2502EBFBCEB436FB2F5F4
:102E20007C0F70474FEA036CBCF1004F08BF20F0E5
:102E30000100B2F57C0F38BF70470BD582F0FF025E
:102E400012F5803FC8BF704700F1C040D8BF00F006
:102E50000040704700F5000C5FEA4C0C48BF70471B
:102E6000B0F1C04000F073B890EA010F0CEAD11342
:102E700048BF42F48072624538BF634504D280EA9D
:102E8000010000F00040704710B500F01AF800BFD4
:102E90008900013E00F007B800F009B85FEA410C74
:102EA0005FEA1C6C08D080EA010000F050B85FEACD
:102EB000400C5FEA1C6CF6D14FF00040A0F580009A
:102EC00070470EF1020E2EF0030E5EF8044B244202
:102ED00004D44FEA4102B2F17F4F11D84FEA4003C8
:102EE000B3F17F4F0CD80ED14FEAD07CB2F17F4FB7
:102EF0000CEB4C0C0CF1020C08BF4CEBD17C04E049
:102F00004FF0080C01E04FEAD17C0CEB4C0324FAA3
:102F100003F404F00704B4F1040C06D20EEB840CA5
:102F2000BDE810404CF0010C6047DFE80CF00708EA
:102F300002024FF00040A0F5800010BD084642009C
:102F400018BFD2F1807288BF00F0004010BDFF2191
:102F500041EAD050C005704751EA000C00F11380DF
:102F60001CF5000F58BFBCF5000F01D4814270471B
:102F700007D711F5000F58BF10F5000F15D4814287
:102F80007047894270471CF5000F04D5BCF5000F4F
:102F9000F7D5884270474FF0807C1CEB410F38BF5B
:102FA0001CEB400F01D28842704780EA010081EAA1
:102FB000000180EA0100FFF7F8BE000090EA010F6F
:102FC00048BF81F000413FF536AD421A04D882F087
:102FD0000042A0EB020011444FEAD0524FF07F4C68
:102FE0001CEA410FA2EBD15318BF9CEA026F4AD0F2
:102FF0004FF0004C4CEA00204CEA012121FA03FC7E
:10300000B0EB0C0C0FD412F0FE0F36D05FEA4C0080
:103010001DD5001240EBC25038BF70471CF03F0F67
:1030200018BF70470BE0A2F101025FEA1C2040EBE1
:10303000C25038BF70471CF07F0F18BF7047C3F1F4
:103040002003994014BF401E20F001007047800803
:103050004FEA122308BF7047B0FA80FCA2EB0C02C3
:10306000CCF1280C60FA0CF093EA122F04BF00EBAD
:10307000C25070474FEAC3707047130A5FEADC1012
:1030800008BF7047F6E79CEA026F04D010EA5C0FB5
:1030900008BF0020704710B5FFF713FF40DFF63E72
:1030A00081F0004070470102020304050607080989
:1030B0000A0B0C0D0E0F10100000000000000000A5
:1030C00001020304060708090000000001020304CE
:1030D000F030000800000020200000002801000857
:1030E0001031000820000020380A000044010008C8
:1030F00001000000100000000000000000127A0033
:1031000000000000000000000000000000000000BF
:04000005080000ED02
:00000001FF
