:020000040800F2
:10000000A00A0020350200086D3F0008993B000857
:100010006D3E000823220008214600080000000071
:10002000000000000000000000000000713F000818
:1000300067220008000000006F3F0008733F0008BF
:100040004F0200084F0200084F0200084F0200084C
:100050004F0200084F0200084F0200084F0200083C
:100060004F0200084F0200084F0200084F0200082C
:100070004F0200084F020008252200083122000824
:100080004F0200084F0200084F0200084F0200080C
:100090004F0200084F0200084F0200084F020008FC
:1000A0004F020008D93F00084F0200084F02000825
:1000B0004F0200084F0200084F0200084F020008DC
:1000C0004F0200084F0200084F0200084F020008CC
:1000D0004F020008154600084F0200084F020008B2
:1000E0004F0200084F0200084F02000800F002F81B
:1000F00000F090F80AA090E8000C82448344AAF132
:100100000107DA4501D100F085F8AFF2090EBAE82F
:100110000F0013F0010F18BFFB1A43F0010318473B
:10012000D44E0000F44E0000103A24BF78C878C1C5
:10013000FAD8520724BF30C830C144BF04680C60ED
:10014000704700000023002400250026103A28BF35
:1001500078C1FBD8520728BF30C148BF0B60704739
:100160006E2900F09182702900F0DB83662904F08B
:10017000AA86652904F0A786672904F0A486612968
:1001800004F0A38603681B0A28BF41F08001692997
:1001900000F03E82642900F03B82752900F038822D
:1001A0006F2900F06883782900F0A783E92900F01F
:1001B0000383E42900F00083F52900F0FD82EF2994
:1001C00000F06583F82900F0A6830368DB0928BFE7
:1001D00041F08001632901F02781732901F02C810E
:1001E000E32901F03781F32901F03C8100207047B9
:1001F0001FB501F043FB04000020002104F0DCFAED
:10020000401C60600020002104F0C0FAE0601FBDC7
:1002100010B510BD01F004FB1146FFF7E9FF04F033
:100220004BFA01F0E1FB03B4FFF7F2FF03BC01F06E
:1002300029FC00000948804709480047FEE7FEE71F
:10024000FEE7FEE7FEE7FEE7FEE7FEE7FEE7FEE786
:1002500004480549054A064B70470000D53F000891
:10026000ED000008A0040020A00A0020A006002045
:10027000A00600207CB51D4616460C00009001D05B
:100280002044401E074B7B442A4669460190304675
:1002900000F013FA05461CB10020694600F020FA70
:1002A00028467CBD610400000FB400B58DB010A9D4
:1002B000099000910B904FF0FF300A9000200C90B5
:1002C000064878440690064878446A4607900F9995
:1002D00009A800F009FC0DB05DF814FB430800000C
:1002E0005B0800002DE9FF5F1D464FF0FF3B914684
:1002F0004FF000085F46D5E90146A96901987F1CC7
:100300008847296A824688470028F6D1BAF1FF3F1C
:100310000CD0002E24F4C06419DD600614D5BAF1A7
:100320002B0F09D0BAF12D0F0ED103E0584604B0BF
:10033000BDE8F09F44F48064A96901987F1C884758
:10034000761E8246002E02DDBAF1300F03D0B9F1DD
:10035000000F26D032E0A969761E01987F1C44F474
:1003600000748847002E824605DDBAF1780F06D06A
:10037000BAF1580F03D0B9F1000F10D01EE0B9F157
:10038000000F02D0B9F1100F18D1A969761E01989B
:100390007F1C24F4007488478246102002E0082065
:1003A00000E00A20814609E0A96908FB0908761ED9
:1003B00001987F1C44F4007488478246002E05DDB6
:1003C0004946504600F07CFB0028EDDAE9690198C7
:1003D0008847A00502D46FF00100A8E7E00725D107
:1003E000600613D5600502D5C8F1000000E0404664
:1003F00029680A1D2A600968220501D5087015E0E0
:10040000220701D5088011E008600FE02868011D6F
:1004100029600068210502D580F8008006E02107E8
:1004200002D5A0F8008001E0C0F8008038467EE7E1
:1004300010B5431C02E010F8011B71B18107FAD11D
:100440004FF0013202C88C1A8C4314EAC211F9D061
:10045000C01A0A0603D0C01E10BDC01A10BD0A047F
:1004600001D0801E10BD0902FCD0401E10BD032A21
:1004700040F2308010F0030C00F0158011F8013BC1
:10048000BCF1020F624498BF11F801CB00F8013BA8
:1004900038BF11F8013BA2F1040298BF00F801CB6C
:1004A00038BF00F8013B11F0030300F04D83083A18
:1004B000C0F0088051F8043B083A51F804CBA0E89A
:1004C0000810F5E7121D5CBF51F8043B40F8043BEF
:1004D000AFF30080D20724BF11F8013B11F801CB24
:1004E00048BF11F8012B24BF00F8013B00F801CBF5
:1004F00048BF00F8012B70474FF0000200B51346CB
:1005000094469646203922BFA0E80C50A0E80C5033
:10051000B1F12001BFF4F7AF090728BFA0E80C50E4
:1005200048BF0CC05DF804EB890028BF40F8042BDD
:1005300008BF704748BF20F8022B11F0804F18BF4A
:1005400000F8012B704770477047704770B504463C
:1005500085690068C10601D5302600E02026C00765
:1005600007D070BDD4E9012130469047206A401C75
:1005700020626D1EF6D570BD70B5044685690078A1
:10058000C00707D170BDD4E9012120209047206A1F
:10059000401C20626D1EF6D570BD09684A0501D564
:1005A00040B27047C905FCD500B2704709684A05DA
:1005B00001D5C0B27047C905FCD580B2704770B58F
:1005C0000C460546012A05D02878800600D5EA6940
:1005D000002302E0012305E05B1C934202D2E05CB1
:1005E0000028F9D1A869E618C01AA861286A184439
:1005F00028622846FFF7AAFF04E0D5E9012114F894
:10060000010B9047B442F8D32846FFF7B5FF70BD01
:100610002DE9F0410646002410687529314616A5DB
:1006200010D0FFF7BAFF002802DA404213A507E016
:1006300031688A0701D512A502E0490704D511A542
:10064000012401E0FFF7B2FF00210A2206F124078E
:1006500009E0B0FBF2FCB0FBF2F302FB1C0030300F
:1006600078541846491C0028F3D123462A463046C0
:10067000BDE8F04100F0E8BA000000002D000000E5
:100680002B0000002000000011680268006A53057A
:1006900001D508700AE0D30501D5088006E01306ED
:1006A00003D5C217C1E9000200E0086001207047CD
:1006B00001694A1C02610878704700B58FB0CDE926
:1006C00001310021059105497944CDE90310114616
:1006D000684600F031F90FB000BD0000E5FFFFFFF4
:1006E0000A6802F8010B0A607047D1E900239A42B8
:1006F00002D2531C0B601070704700002DE9FF5FA1
:1007000015468A460446DFF8AC80F8440027D8E94D
:1007100000103E46CDE9001010E03AF816106A4687
:1007200002A801F05DF8411C07D02178890603D5A5
:10073000E269391891420DD80744761C207880066A
:1007400002D5E069B84205DDAE42E6DB3AF81600B4
:100750000028E2D1A069C01BA0612046FFF7F6FE89
:10076000D8E90010CDE90010002017E03AF8181081
:100770006A4602A801F034F8B0F1FF3F81460BD081
:1007800000250DF1080B05E0D4E901211BF8050057
:1007900090476D1C4D45F7D308F10100B0428046EB
:1007A000E4DB206A384420622046FFF7E5FEBDE81E
:1007B000FF9F0000EA4700002DE9F0418046D21D6E
:1007C00022F007020025D2E90002F52915A614D06F
:1007D000011E72F1000106DA0023D0EB030063EB87
:1007E000020211A608E0D8F800108B0701D50FA669
:1007F00002E0490701D50EA601251146002408F1A3
:10080000240704E000F0D2F930323A55641C50EA73
:100810000102F7D12B46324621464046BDE8F04161
:1008200000F012BA000000002D0000002B000000B4
:100830002000000030B4002100F1240408E002F0A0
:100840000705D208303542EA4372DB086554491C7B
:1008500052EA0305F3D10468002310A2250707D547
:10086000A40600D421B1C46901230DA2641EC46191
:1008700030BC00F0E9B910B5044621461068FFF716
:1008800095FE02462046BDE810400023D2E7D21D67
:1008900022F00701D1E90023CCE7000000000000AE
:1008A00030000000F0B40D460188090502D5214C46
:1008B0007C4402E01F4C7C440E34002100F12406ED
:1008C00008E002F00F071209E75D42EA03721B0914
:1008D0007754491C52EA0307F3D102780023120728
:1008E00004D5702D06D009B1022311342246F0BC84
:1008F00000F0AAB901231034F8E770B504460D469C
:1009000021461068FFF752FE024629462046BDE800
:1009100070400023C6E7D21D22F00703D3E900236D
:10092000C0E70368126843F0200303600823C36133
:100930000023B7E74C4600002DE9F05F89460446E6
:100940004FF0000ADFF874B1FB44C0F820A0204645
:10095000E1688847002874D0252806D0D4E9012111
:100960009047206A401C2062F1E700265F4620463F
:10097000E16888472028054607DB312D05D2781924
:1009800010F8200C08B10643F1E7B00701D526F0B6
:100990000406C4F81CA00027C4F818A02A2D09D00A
:1009A000284603F062FE38B304EB8708303DC8F8F0
:1009B000185019E059F8041B204604EB8702916196
:1009C000E1688847012F054618D1E069002820DA40
:1009D00026F020061DE0D8F8180000EB800005EB9B
:1009E00040003038C8F818002046E16888470546BE
:1009F00003F03BFE0028EED1012F0AD02E2D08D1A6
:100A00002046E16888477F1C0546022F46F02006F5
:100A1000C4DBA069002803DA404246F00106A06169
:100A2000F00701D026F010066C2D0BD0682D09D0F0
:100A30004C2D39D06A2D35D0742D35D07A2D33D048
:100A400016E038E0E1682F4620468847B842054660
:100A500009D16C2F26D04FF48060E1680643204610
:100A60008847054604E06C2F1AD04FF48070064387
:100A70000DB3A5F14100192802D8203546F40066CF
:100A80004A462946204626604E46FFF769FB80B15C
:100A900001280BD0F61D26F0070000F1080956E7E3
:100AA0004020E4E78020D8E70020D6E706F10409DB
:100AB0004DE7284652E7206ABDE8F09FDC4500007C
:100AC0003A2800D2303820F02002412A01D3A2F186
:100AD0003700884201D34FF0FF307047026811445D
:100AE0001378016018467047D16005497944516117
:100AF00004497944116200211161114600F0B6BC2D
:100B0000EDFFFFFF41010000426842B1016811F8AA
:100B1000013B23B1521EC0E9001218467047012163
:100B2000C160881E704742685AB1C368016843B902
:100B300083688B4205D0491E521CC0E90012002078
:100B400070474FF0FF30704710B5203AC0F00B806F
:100B5000B1E81850203AA0E81850B1E81850A0E8C1
:100B60001850BFF4F5AF5FEA027C24BFB1E818501B
:100B7000A0E8185044BF18C918C0BDE810405FEA8B
:100B8000827C24BF51F8043B40F8043B08BF704707
:100B9000D20728BF31F8023B48BF11F8012B28BF0C
:100BA00020F8023B48BF00F8012B704730B5B0F188
:100BB0000A024FEA900E71F100034EEA817EB0EB1B
:100BC0000E0061EB91014FEA101E4EEA017E10EB20
:100BD0000E0041EB11114FEA102E4EEA016E10EBA0
:100BE0000E0041EB11214FEA104E4EEA014E10EB80
:100BF0000E0041EB1141401841F100014FEAD000D5
:100C000040EA41704FEAD10110EB80054FEA8104C0
:100C100044EA907444EB01046D1944EB0404521B44
:100C2000A3414FF0000348BF0A3200D530BD401C3D
:100C300041F1000130BD10B5044600F017FE006818
:100C4000005D00F0010010BD2DE9F0470D4699460A
:100C50009246044600F124080168880604D5E0693C
:100C600021F01001216000E00120A84201DD471BB6
:100C700000E00027A1697A1902EB0900081AA061B7
:100C80002078C00602D42046FFF760FC002608E06A
:100C9000D4E901211AF806009047206A401C761C0E
:100CA00020624E45F4DB2078C0060AD52046FFF7C7
:100CB0004DFC06E0D4E9012130209047206A401C19
:100CC0002062381EA7F10107F4DC07E0D4E9012116
:100CD00018F805009047206A401C2062281EA5F1E4
:100CE0000105F3DC2046FFF747FC2078000602D51B
:100CF0000220BDE8F0870120FBE770472DE9FF4F98
:100D00000C461E464FF0FF378BB0D2E90001DDF8EC
:100D100060800A908A46C1F30A5505B93D46002114
:100D200008464FF00000BAF1000F00F4400005DA69
:100D300000EB80004FF4400101EA50004FEA905967
:100D4000B9F1010F00DDB9460A9850EA4A000ED009
:100D500044F61050A5F2FF3545432F14B8F1000FAB
:100D60001ED07542291E1EDDC9F100021CE0B8F13B
:100D7000010F4FF0000001D0302103E0F24305E005
:100D80002154401CB042FBDB30460022002121549C
:100D90000B99C1F80880C1E900200FB0BDE8F08FC1
:100DA000BD1B6D1CDEE74A4600DA694206A800F06A
:100DB000A9FD06AB93E8070003AB83E807005046A4
:100DC0000A9900F066FE8DE80700A0F500501F3874
:100DD00000900398002D0ADD42F21F014A460844A4
:100DE000002303A90390684601F0CFF809E0A0F5BD
:100DF00000504A461F38002303A90390684601F0BB
:100E0000D9F88DE807000004000C03D04FF0FF3044
:100E1000410800E01046B8F1000F03D00022009214
:100E200015461EE0751E05D4FFF7C0FE3032625530
:100E30006D1EF9D5B3460122084302D000227F1C63
:100E400004E02078302801D100227F1E002A099773
:100E500084D01DE0112D07DAFFF7A8FE303262556D
:100E60006D1C50EA0102F5D1084302D00098C8B1C8
:100E70000EE00021681E05E0235C625C635422548E
:100E8000401E491C8142F7DBAB46A81B401E09905F
:100E9000002004F80B000B98099AC0F80880C0E9FC
:100EA000002B7AE711264FF0000857E72DE9F04FA5
:100EB00088460446D21D22F0070191B0D1E9000115
:100EC000CDE90A0103F0ADFB02460B98C00F01D03B
:100ED0002D2007E02068810701D52B2002E020218A
:100EE00001EAC000032A099001D0072A05DB034666
:100EF0004146204600F0C6FC0BE12078800601D573
:100F0000E06900E00620B8F1650F814606D0B8F12F
:100F1000660F18D0B8F1670F70D131E00020B9F139
:100F2000110F009001DB112301E009F101030AAA6E
:100F300001A90CA8FFF7E2FEDDE90C70002609F11B
:100F40000105834647E001204B4600904FF00047E3
:100F50000AAA01A90CA8FFF7D1FEDDE90DB00C9992
:100F60005D46002610B909F101000D18B9EB050026
:100F700003D4C0F1FF3609F10105A5EB09002BE010
:100F8000B9F1010F01DA4FF001090020B9F1110F99
:100F90000090484601DD112300E003460AAA01A99A
:100FA0000CA8FFF7ABFEDDE90C704D46002683462A
:100FB000207800070AD4AB4500DA5D4601A8012D70
:100FC00004DD411911F8011C302907D04F4502DA20
:100FD00017F1040F04DA012082460FE06D1EEEE7E0
:100FE000002F02DCED1B3E4403E0781CA84200DD2C
:100FF0007D1CB81B00F1010A4FF000472078000764
:1010000003D4AA4501DB4FF0FF3A0021B7F1004FAE
:101010000DF143088DF8431024D002202B23002F1C
:1010200001DA7F422D230A21021EA0F1010000DC1B
:101030005FB197FBF1FC97FBF1F201FB1C7C1746BB
:101040000CF1300C08F801CDEEE7A8F101000370B7
:101050002188090501D5452100E06521A0F101089D
:1010600000F8011C09980FA9A1EB0807FF1D00B1AA
:101070000120411901EBEA70A1693844081A401EA9
:10108000A0612078C00602D42046FFF75FFA0998D5
:1010900028B1D4E901219047206A401C20622078C1
:1010A000C00622D52046FFF751FA1EE0002E04DBD1
:1010B000B34502DD01A8805D00E03020D4E90121C4
:1010C0009047206A401C2062761CAAF101005FEA6A
:1010D000000A0AD100F0D2FBC0680168405CD4E984
:1010E00001219047206A401C2062281EA5F10105BD
:1010F000DCDC07E0D4E9012118F8010B9047206AF5
:10110000401C2062381EA7F10107F3DC2046FFF7E0
:1011100033FA032011B041E62DE9F04F04460D46A5
:10112000D21D22F0070089B0D0E900974846394621
:1011300003F077FA0246F80F01D02D2307E020686C
:10114000810701D52B2302E0202101EAC0038DF89D
:1011500020300BB1012000E00020032A824601D09C
:10116000072A04DB2946204600F08CFB3FE120786B
:10117000800601D40D2500E0E569C7F30A560D2D60
:1011800049DA00214FEA175B08464FF00000002FB4
:1011900000F4400007DA00EB80004FF4400100EB60
:1011A000D07001EA60008115012901DD4FF0FF31A7
:1011B00000224FEA850CBCF1180F06D31346ACF1A0
:1011C00018004FF08052C24003E04FF4801323FA1E
:1011D0000CF30CF10C0CBCF1200F04D3ACF1200C7F
:1011E00009FA0CF001E007FA0CF000294FF0004872
:1011F00001DD18B90FE00ED140450CD319EB0209FF
:101200005F4121B9404502D19F4329EA0209BBEB66
:10121000175F00D0761C2088000502D57B487844F3
:1012200002E07A487844193808AA302302F80A30D4
:10123000037C0AF10101002E0AF1020A53546A46A6
:1012400002DC4FF0300101E04FF031014FF00108B6
:101250008DF8001002D0A6F2FF3603E059EA4701EC
:1012600000D06B4E002D02DC2178090704D54FF029
:1012700002082E218DF80110C44600210BE0C7F3AF
:1012800003433F01C35C491C6D1E02F80830052969
:1012900008F1010801DA002DF1DC00210CE000EB7F
:1012A0001973491C1B786D1E082902F808304FEA93
:1012B000091908F1010801DA002DF0DC21688B061C
:1012C00002D516E0A8F10108E04505DD02EB0803B0
:1012D00013F8013C302BF5D0B8F1000F09DD02EB1B
:1012E000080313F8013C2E2B03D1090701D4A8F100
:1012F0000108002D05DD3E2102F808106D1E08F1E1
:101300000108407C002E02F8080008F1010804DA08
:101310002D20764202F8080002E02B2002F8080097
:101320000A214FF47A70864208F101080BDB96FB24
:10133000F0F3303302F8083096FBF0F308F10108BF
:1013400000FB136601E0642E0CDB642096FBF0F3D7
:10135000303302F8083096FBF0F308F1010800FB87
:10136000136601E00A2E06DB96FBF1F0303002F83E
:10137000080008F1010896FBF1F001FB1060303025
:1013800002F80800A16908F1010808EB050202EB68
:101390000A00081AA0612078C00602D42046FFF790
:1013A000D5F8216A08AE01EB0A00206204E0D4E916
:1013B000012116F8010B9047BAF1010AF7D2207803
:1013C000C00602D52046FFF7C1F86E4609E016F8C0
:1013D000010B3E280FD0D4E901219047206A401C20
:1013E0002062B8F10108F2D22046FFF7C5F809B033
:1013F0000320BDE8F08F206A2844206203E0D4E98E
:101400000121302090476D1EEBD3F8E72A3D000004
:1014100002FCFFFF10B5436913B1AFF3008001E098
:10142000FFF7CDF8012010BD127800F124010A70F9
:1014300000224A700122EDE711684FF0FF32E9E720
:1014400010B5436913B1AFF3008001E0FFF756F91F
:10145000012010BD128800F1240182840022C28480
:101460000122EDE711684FF0FF32E9E72DE9F34F74
:101470004FF0000A0C4656468DB001200C9001F149
:101480000C000B9062690B9801219047051E2DD02E
:10149000252D2CD0216A8847C0B162690B980121A3
:1014A0009047216A88470028F7D16269411E0B984E
:1014B000904700E0761CA1690D988847216A88470B
:1014C0000028F7D1E1690D988847DBE7A1690D98FD
:1014D0008847A842074601D1761CD3E7E1690D98F9
:1014E00088477F1C02D1BAF1000F6FD06BE16269AF
:1014F0000B9800273D46394690472A2804D1626957
:101500000B98012190470125DFF8D08262690B9882
:1015100001219047A0F130010A290AD24745E5DCB4
:1015200007EB870100EB4107303FDFD445F01005A2
:10153000ECE7E90601D46FF000476C280AD04C288C
:1015400014D0682815D06A280DD074281CD07A28A9
:101550001AD01DE062690B98012190476C2802D0D7
:1015600045F0040514E045F002050DE045F02005C6
:101570000AE062690B9801219047682802D045F083
:10158000080505E045F4006562690B980121904764
:10159000C4E9015765283DD019DC58287AD00CDC05
:1015A000452837D004DC252826D041289ED131E0BB
:1015B00046282FD0472899D12CE05B2877D0612886
:1015C00028D063287CD0642823D15AE0F6E06F2825
:1015D00048D008DC66281DD067281BD0692821D098
:1015E0006E2816D127E0702845D0732868D075285A
:1015F00047D078280DD14DE0A1690D98884725285E
:1016000005463FF469AFE1690D9888476D1C3FF4CA
:101610006AAFD8E00D9923466A466FF00100AFF338
:101620000080C5E045F0400023464FF000026060B6
:10163000A80736D43EE0E8077FF447AF2068011DD5
:1016400021600068290501D506701BE7290701D52F
:10165000068017E7A90703D5F117C0E9006111E774
:1016600006600FE745F0400023464FF00802606037
:10167000A80716D41EE040F60E0125EA01006060BE
:1016800016E045F0400023464FF00A026060A807CC
:1016900007D40FE045F040006060A80708D5234656
:1016A00010220D996FF00100AFF3008080E007E099
:1016B000102223460D996FF00100FEF713FE77E02C
:1016C0004FF0000963284F46C8464B46CB4602D030
:1016D0005B2806D038E0E80601D40120A06001278D
:1016E00032E06269D4F80CB00B98012190475E2873
:1016F00007D14FF0010949466269D4F80CB00B9844
:101700009047216939B900210A4603AB43F82120EB
:10171000491C0829FADBD8B3216949B308F101084B
:1017200062690B98012190475D28F4D1B9F1000F4F
:1017300009D0002003A951F82020D24341F82020ED
:10174000401C0828F7DB03AB2069002820794FEA0A
:1017500040701ED05B462246CDF80080CDE901974F
:101760000D9900286FF0010020DAAFF300801FE030
:10177000C11703AA00EBD1614B1121F01F0102EB4D
:101780008302411A13680120884003431360C7E7AE
:1017900019E00D99224600286FF00100009702DA47
:1017A000AFF3008004E0AFF3008001E0AFF300800E
:1017B00000280ADA401C06D10C9820B14FF0FF3007
:1017C0000FB0BDE8F08F5046FAE7E90701D10AF102
:1017D000010A064400200C9054E60000CCCCCC0C4E
:1017E00070B516460C46054600F040F8036893F8BD
:1017F0000101012806D0FF2C0FD8185D68B1012027
:101800002C7070BDD3F807013246214603F207134E
:1018100003442846BDE8704018474FF0FF3070BDC4
:10182000754600F0EBF8AE4605006946534620F0D9
:101830000700854618B020B5FEF70AFDBDE8204038
:101840004FF000064FF000074FF000084FF0000B7C
:1018500021F00701AC46ACE8C009ACE8C009ACE82F
:10186000C009ACE8C0098D467047000010B500F013
:1018700005F8001D10BD00BF412F00000048704753
:10188000600400202DE9F0411F460446032601684C
:10189000072A01F4006004DB08B116A505E016A5CF
:1018A00003E008B115A500E015A521F010002060A7
:1018B000A069C01EA0610FB1401EA0612046FEF7C6
:1018C00045FE4FB1D4E9012138469047206A401CBB
:1018D0002062C01C206206E0206AFAE7D4E90121F8
:1018E00015F8010B9047761EF8D22046FEF744FE0D
:1018F000BDE8F0814E414E006E616E00494E4600DB
:10190000696E66002DE9F047814616468AB0354873
:1019100078440DC88DE80D0032487844801C03AC33
:101920000DC884E80D0041F69B300844372190FB38
:10193000F1F290FBF1F5A5F1800501FB12041B3CCF
:1019400002D56442012000E00020DFF898A0804624
:101950000027FA44AAF1BE0A0EE0E0070AD0324698
:10196000684607EB470101230AEB810100F022FBE7
:101970008DE8070064107F1C002CEED1194F7F44C6
:10198000AE3F19E0E80715D007EB04100DF1180A77
:1019900090E80E008AE80E00C068F04201D1981964
:1019A00008903246012306A903A800F003FB03AB0D
:1019B00083E807006D10641C002DE3D14FF0010394
:1019C00032466946B8F1000F03A802D000F0DDFAF4
:1019D00001E000F0EFFAC9E90001C9F808200AB0F7
:1019E000BDE8F087C836000010B50446AFF30080AC
:1019F0002046BDE81040FEF716BC000000487047C6
:101A0000400400204FF0013C50F8042B51F8043BF7
:101A10009A4221D1A2EB0C03934313EACC1317D1C2
:101A200050F8042B51F8043B9A4215D1A2EB0C0359
:101A3000934313EACC130BD150F8042B51F8043B19
:101A40009A4209D1A2EB0C03934313EACC13DBD0E7
:101A50004FF00000704700BFD01A01BAB1FA81F10F
:101A600001F0180122FA01F0CB40C1F12001DBB2F4
:101A7000C0B2C01A2CFA01F3D11A914311EAC31172
:101A8000E6D1704701491820ABBEFEE726000200F0
:101A900070475FEA400C08BF91F0000F4FEA8C23BB
:101AA0004FEAC12243EA51514FEA1C5018BF00F5DA
:101AB000F0404FEA300018BF41F000415FEA6C5C33
:101AC00000F02980BCF1FF3F08BF40F08040704724
:101AD000130C06BF12044FF0100C4FF0000C130E45
:101AE00004BF12020CF1080C130F04BF12010CF119
:101AF000040C930F04BF92000CF1020CD30F04BF2F
:101B000052000CF1010C11464FF00002A0F11F0031
:101B1000A0EB0C00704711F0004F08BF704731F088
:101B200000413FF4D5AF0B0C06BF09044FF0100C79
:101B30004FF0000C0B0E04BF09020CF1080C0B0F48
:101B400004BF09010CF1040C8B0F04BF89000CF1D8
:101B5000020CCB0F04BF49000CF1010CCCF12003A7
:101B6000A0EB0C0022FA03F302FA0CF241EA0301A3
:101B700000F10100704720F07F4C80EA030023F061
:101B80007F47ACEB070303F57C5300F0004003F103
:101B9000FF032DE980494FEA154B09B44FEA14437E
:101BA00025EA0B4E24EA03480FF2042606EB13271E
:101BB00049083E785FEA320203FB0667C7F5000773
:101BC00007FB06F64FEA54374FEAD64606F10206FF
:101BD00007FB066CCCF1005C4FEA1C472CEA074C73
:101BE00007FB06F40CFB06F504EB15464FEA9616C8
:101BF00034BF00204FF000404FEAD13706FB07FC0E
:101C00004FEA1C4C0CFB0BF7D21B03FB0CF761EBF0
:101C100007010CFB0EF7B0EB074072EB17420CFB11
:101C200008F734BFA2EB0742B2EB074261EB174162
:101C30004FEA0C444FEA910706FB07FC4FEA1C4CA5
:101C40000CFB0BF7B0EBC74072EB573203FB0CF702
:101C500034BFA2EBC742B2EBC74261EB57310CFB7A
:101C60000EF7B0EBC70072EB57720CFB08F734BFEE
:101C7000A2EBC702B2EBC70261EB5771039F4FEAB9
:101C8000816141EA921104EBCC044FEAD1374FEA6B
:101C9000826206FB07FC42EA90124FEA80604FEA3C
:101CA0001C4C0CFB0BF7D21B03FB0CF761EB070181
:101CB0000CFB0EF7B0EB074072EB17420CFB08F77A
:101CC00034BFA2EB0742B2EB074261EB17414FEA88
:101CD0008C554FEA910704EB9C2406FB07FC4FEA66
:101CE0001C4C0CFB0BF7B0EBC74072EB573203FBFD
:101CF0000CF734BFA2EBC742B2EBC74261EB5731DE
:101D00000CFB0EF7B0EBC70072EB57720CFB08F739
:101D100034BFA2EBC702B2EBC70261EB577115EB00
:101D20004C254FEA816141EA92114FEA82624FEA03
:101D3000D13742EA901206FB07FC44F100044FEA57
:101D400080604FEA1C4C0CFB0BF7D21B03FB0CF71B
:101D500061EB07010CFB0EF7B0EB074072EB17428B
:101D60000CFB08F734BFA2EB0742B2EB074261EB72
:101D7000174115EB1C154FEA813141EA92414FEAB8
:101D8000823242EA90424FEA80304FEA0C7644F1C8
:101D9000000448EA03434EEA0B484FF0000EB2EB52
:101DA000080C71EB030724BF624639464EEB0E0E5A
:101DB0004FF0000B0018524149414BEB0B0BB2EBBB
:101DC000080C71EB03077BF1000B24BF6246394618
:101DD0004EEB0E0E4FF0000B0018524149414BEBF9
:101DE0000B0BB2EB080C71EB03077BF1000B24BF6C
:101DF000624639464EEB0E0E51EA020718BF46F016
:101E0000010616EB0E7655F1000254F1000103D5E0
:101E1000BDE88901BDE80088BDE88901BDE800484A
:101E2000B619524141EB0101A3F1010370478080D3
:101E30007F7E7D7C7B7A7978777676757473727124
:101E400071706F6E6E6D6C6C6B6A6A6968686766DC
:101E500066656464636362616160605F5F5E5E5D6E
:101E60005D5C5C5B5B5A5A595958585757565655E2
:101E700055555454535352525251515050504F4F44
:101E80004F4E4E4D4D4D4C4C4C4B4B4B4A4A4A4994
:101E900049494848484747474746464645454544D7
:101EA0004444444343434342424242414141002B64
:101EB0009C4630D477002BD01CB54FEA370703B4CB
:101EC0004FF010004FF01001BAF1000F06D0BCF136
:101ED000000FDCBF40F0080040F008014FF00000A8
:101EE0000FBCBDE810400BF1010BBBF1010F08BFA7
:101EF0005FEA170722BF12F1010211F101014FF051
:101F0000004143F1000300F0004043EA0000704745
:101F1000F9D35708D0E746EA064613F1400F4FEAD7
:101F200016461FDD13F1200FDFBF16430A460021BE
:101F300020335B42BED0C3F1200746EA064602FAD0
:101F400007F74FEA164646EA0706C3F1200722FACA
:101F500003F201FA07F721FA03F14FF0000342EA16
:101F60000702A7E746EA020646EA06464FEA164691
:101F700046EA0106BCBF46EA0646360C4FF00003AF
:101F80004FF000024FF0000194E72DE9804C9A4693
:101F9000934670B491E8380007C831EA400C48BF56
:101FA00034EA430C03D5FFF7E6FDFFF780FFF0BCF2
:101FB000BDE8008C2DE9804C9A46934670B491E8B8
:101FC000380007C810F0804F08BF13F0804F03D1CE
:101FD00000F005F8FFF76BFFF0BCBDE8008C20F0C7
:101FE0007F4780EA030023F07F4C07EB0C03A3F547
:101FF0007C5300F00040A3F1FE0392F0000F00F0CC
:10200000B38095F0000F00F077802DE901494FEA89
:1020100011404FEA144621EA004800FB06FC24EA7E
:10202000064708FB06F607FB08F800FB07F718EB66
:1020300006484CEB164C4FEA124B18EB07484FEA98
:1020400015464CEB174022EA0B4E0BFB06FC25EA2B
:1020500006470EFB06F607FB0EFE0BFB07F71EEB13
:10206000064E4CEB164C4FF000061EEB074E4CEBA9
:10207000174B18EB0B0840F1000018EB0E0B58EB58
:10208000000840F100008F1A4FF000013CBFC94327
:10209000661B14BFB5EB040C00213CBFC943F61B03
:1020A0004FEA17444EEA8E0E27EA04454FEA1C47D2
:1020B00004FB07622CEA074C05FB07F70CFB05F64F
:1020C00004FB0CFC16EB074642EB174216EB0C46E2
:1020D00042EB1C421BEB060658EB0202414146EA6A
:1020E0009E0601D5BDE80189B619524141EB0101B7
:1020F000A3F10103BDE801894FEA14454FEA1147F6
:1021000024EA054621EA074C05FB07F406FB07F71E
:102110000CFB06F105FB0CFC11EB074144EB1744EB
:102120004FEA124711EB0C4144EB1C4422EA074CE6
:1021300005FB07F206FB07F70CFB06F605FB0CFC9C
:1021400016EB074642EB174216EB0C4642EB1C45DA
:102150006A1854F1000148BF7047B619524141EB6B
:102160000101A3F10103704795F0000F37D04FEA4A
:1021700011424FEA144721EA024624EA074C02FBC7
:1021800007F106FB07F70CFB06F402FB0CFC14EB53
:10219000074441EB17414FEA154714EB0C4441EB60
:1021A0001C4125EA074C02FB07F506FB07F70CFB71
:1021B00006F602FB0CFC16EB074645EB174516EB43
:1021C0000C4645EB1C42121951F1000148BF704703
:1021D000B619524141EB0101A3F1010370474FEAE7
:1021E00014454FEA114724EA054621EA074C05FB4E
:1021F00007F106FB07F70CFB06F24FF0000605FBA4
:102200000CFC12EB074241EB174112EB0C4251EB75
:102210001C4148BF7047921841EB0101A3F1010333
:102220007047FEE7014800F091B800007C020020F2
:10223000014800F08BB800003802002030B590F85B
:1022400040500124AC40C56B6C6004686360436817
:10225000102B036803D099600068C26030BD9A609B
:102260000068C16030BD704772B6FEE710B590F8E7
:1022700021100022022905D00421816380F820204A
:10228000012010BD01680B6823F00E030B6001688C
:102290000B6823F001030B6090F84030C46B012100
:1022A00001FA03F3636080F8211080F820201046C3
:1022B00010BD000010B590F821100024022903D0B1
:1022C0000421816301243DE001680A6822F00E02C6
:1022D0000A6001680A6822F001020A601A4A01686D
:1022E000914201D1012121E0174A1432914201D1DA
:1022F00010211BE0144A2832914201D1891515E0C2
:10230000114A3C32914201D189140FE00E4A5032F9
:10231000914202D14FF4803108E00B4A643291427D
:1023200002D14FF4801101E04FF08071064A083A63
:102330005160012180F82110002180F82010416BAC
:1023400001B18847204610BD080002402DE9F05F2A
:10235000C16B0C6801680B68D0F840C0042202FA17
:102360000CF2494DDFF824A1494E4A4FDFF828B15D
:10237000DFF828E122422CD05A072AD50A689206B3
:1023800003D40A6822F004020A600168A94201D15C
:10239000042219E0514501D1402215E0B14202D199
:1023A0004FF4806210E0B94202D14FF480420BE05A
:1023B000594502D14FF4802206E0714502D14FF415
:1023C000800201E04FF080622F4908394A60C16AFB
:1023D0003BE04FF0020808FA0CF818EA040F4FF03F
:1023E00000094FF0010235D05FEA837832D50B68DF
:1023F0009B0605D40B6823F00A030B6080F82120AC
:102400000168A94201D1022219E0514501D12022DF
:1024100015E0B14202D14FF4007210E0B94202D18E
:102420004FF400520BE0594502D14FF4003206E060
:10243000714502D14FF4001201E04FF000721249D1
:1024400008394A6080F82090816A00291AD0BDE8D6
:10245000F05F0847082505FA0CF5254212D01B0746
:1024600010D50B6823F00E030B6090F84010C36B7F
:1024700002FA01F15960826380F8212080F82090EF
:10248000016BE2E7BDE8F09F080002401C0002403B
:102490003000024044000240580002406C000240FC
:1024A00030B528B308C8134914221944B1FBF2F11E
:1024B0008900C16310498163022141771A6843F69C
:1024C000F0718A43D0E900142143D0E902452C433E
:1024D0002143046921434469214384692143114311
:1024E000196000214163012242770177084630BD1F
:1024F000012030BDF8FFFDBF0000024070B504466A
:1025000090F82000002501280CD0012084F820003C
:1025100094F821600020012E06D084F820000225C6
:10252000284670BD022070BD022684F82160A06399
:102530002068066826F0010606602046FFF77EFE4A
:10254000E06A00282068016802D041F00E0106E030
:1025500021F0040101602068016841F00A01016076
:102560002068016841F001010160D9E72DE9F84FC9
:10257000DFF8B8910024A9F1040B23460F2709F1D5
:10258000040AABF1040EC9E00125A5402A40AA4285
:102590007DD1674ED1F804C0ACEB0608B44532D00B
:1025A00014DCBCF1030F3AD009DCBCF1000F2AD0D7
:1025B000BCF1010F1CD0BCF1020F31D11DE0BCF108
:1025C000110F17D0BCF1120F2AD119E0B8F5881FEE
:1025D00019D006DCB8F5803F15D0B8F5801F1FD1A3
:1025E00011E0B8F5001F0ED0B8F5041F18D10AE0AD
:1025F000CB6815E0CB681B1D12E0CB6808330FE0F9
:10260000CB680C330CE08B682BB1012B4FF0080327
:1026100003D0456104E0042302E0056100E00023EB
:10262000FF2A01D8064601E000F104064FEA8405BE
:1026300001D9A5F12005D6F8008007FA05FC28EAA3
:102640000C0803FA05F548EA0508C6F800804D684D
:10265000ED0062D5374DAE6946F00106AE61AD6959
:1026600024F0030605F001050095334D06EB050C3B
:10267000DCF80850A607360F07FA06F825EA080521
:10268000DFF8B880404503D14FF0000817E044E080
:10269000DFF8AC80404502D14FF001080FE0DFF8D1
:1026A000A480404502D14FF0020808E0DFF898808E
:1026B000404502D14FF0030801E04FF0040808FA4A
:1026C00006F848EA0508CCF808804D68D9F800609B
:1026D000ED024D4601D5164300E096432E604D684D
:1026E000DAF80060AD02554601D5164300E0964386
:1026F0002E604D68DBF80060AD035D4601D51643E2
:1027000000E096432E604D68DEF80060ED037546EC
:1027100001D5164300E096432E60641C0D682A46DE
:10272000E5407FF431AFBDE8F88F000008040140B8
:10273000000011100010024000000140000801409C
:10274000000C014000100140001401400AB1016179
:1027500070470904FBE700000148806870470000EB
:10276000100000200248816802781144816070479F
:1027700010000020074810B5016841F01001016009
:10278000032000F075F80F2000F006F800F024F8A0
:10279000002010BD0020024070B50D4D04464FF4DE
:1027A0007A712878B1FBF0F00A490968B1FBF0F0C2
:1027B00000F0DCFA48B9102C07D200222146501E46
:1027C00000F036F800206C6070BD012070BD000084
:1027D000100000201C0000200C4808B5816941F061
:1027E00001018161816901F001010091C16941F03C
:1027F0008051C161C06900F0805000900448416878
:1028000021F0E06141F00071416008BD001002401C
:1028100000000140002809DB00F01F020121914067
:102820004009800000F1E020C0F80011704700006E
:10283000F0B40E4B1B680C46C3F30223C3F107052B
:10284000042D00D90425191D072901D2002300E019
:10285000DB1E012606FA05F1491E214099409E40E3
:10286000761E16403143F0BC01F0EFBE0CED00E0E7
:10287000064900F0070208684FF6FF03184040EAD7
:102880000220034A10430860704700000CED00E08E
:102890000000FA052DE9F0470F46050061D0434ED0
:1028A000306800F00700B84209D2306820F0070015
:1028B00038433060306800F00700B84251D12868D2
:1028C0003B4C810712D5400703D5606840F4E060B7
:1028D00060602878000703D5606840F4605060604D
:1028E0006068A96820F0F000084360602878C0079D
:1028F00028D06868012810D02168022810D08907E4
:1029000000292EDA616821F0030101436160FFF7BD
:1029100023FF804641F288390DE021688903EFE703
:102920008901EDE7FFF718FFA0EB0801494502D93F
:102930000320BDE8F0876068696800F00C00B0EB28
:10294000810FEFD1306800F00700B8420BD9306832
:1029500020F0070038433060306800F00700B842CC
:1029600001D00120E5E72878400705D56068E968CF
:1029700020F4E060084360602878000706D56068AE
:10298000296920F4605040EAC100606000F038F826
:102990006168084AC1F30311515CC84006490860E8
:1029A00006480068FFF7F8FE0020C2E7002002405A
:1029B00000100240E04E00081C000020140000201F
:1029C0000448054900684968044AC1F30221515C82
:1029D000C84070471C00002000100240F04E000864
:1029E0000448054900684968044AC1F3C221515CA2
:1029F000C84070471C00002000100240F04E000844
:102A00000E4A51680E4801F00C03042B11D0082B1C
:102A10000FD10C48C1F38343C903C05C0AD5516888
:102A2000084AC1F34041921E515C054A5043B0FB35
:102A3000F1F070470449484370470000001002401D
:102A400000127A00D04E000800093D002DE9F84F31
:102A5000040070D02078C04DC00749D06868C0F32A
:102A60008100012807D06868C0F38100022809D1DD
:102A70006868C00306D52868800339D560680028D7
:102A8000E7D035E06068B0F5803F0BD010B1B0F50D
:102A9000A02F11D0286820F480302860286820F406
:102AA000802002E0286840F480302860606890B19F
:102AB000FFF752FE06460AE0286840F480202860AE
:102AC000F0E700BFFFF748FE801B642873D8286832
:102AD0008003F7D50CE0FFF73FFE064605E000BF98
:102AE000FFF73AFE801B6428F0D828688003F7D4EB
:102AF00020789A4E80074FF001094FF0000839D531
:102B0000686810F00C0F07D06868C0F381000228D5
:102B100009D16868C00306D42868800714D52069E5
:102B2000012808D110E02069B0B1C6F80090FFF785
:102B300013FE074605E00AE1FFF70EFEC01B022860
:102B4000C4D828688007F7D52868616920F0F800A4
:102B500040EAC10028600DE0C6F80080FFF7FCFDE8
:102B6000074604E0FFF7F8FDC01B022823D82868B9
:102B70008007F7D4207800072CD57948A169D9B10E
:102B8000C0F80090FFF7E8FD074604E0FFF7E4FD1A
:102B9000C01B02280FD8686A8007F7D571484FF428
:102BA000FA510068B0FBF1F0009000BF0098411EA0
:102BB0000091FAD20EE080E0C0F80080FFF7CCFD73
:102BC000074604E0FFF7C8FDC01B022875D8686AF5
:102BD0008007F7D42078400760D5E8690027C00057
:102BE00008D4E86940F08050E861E869012700F006
:102BF000805000905C480168C90513D40168834681
:102C000041F480710160FFF7A7FD824606E000BF36
:102C1000FFF7A2FDA0EB0A0064284ED8DBF8000005
:102C2000C005F5D5E06801280AD008B1052813D001
:102C3000286A20F001002862286A20F0040002E0DF
:102C4000286A40F001002862E06841F2883B98B1B0
:102C5000FFF782FD82460BE0286A40F004002862FC
:102C6000EEE700BFFFF778FDA0EB0A0159455AD8FF
:102C7000286A8007F6D50CE0FFF76EFD824605E076
:102C8000FFF76AFDA0EB0A0159454CD8286A800776
:102C9000F6D41FB1E86920F08050E861E06988B39C
:102CA0006968C1F38101022944D00228C6F8608016
:102CB00004D0FFF751FD044638E034E0FFF74CFD47
:102CC000074604E0FFF748FDC01B02282BD8286800
:102CD0008001F7D4206AB0F5803F05D16868A1680B
:102CE00020F4003008436860D4E9080108436968AB
:102CF00021F4741108436860C6F86090FFF72CFD5A
:102D0000044606E025E000BFFFF726FD001B022871
:102D100009D828688001F7D51BE000BFFFF71CFD2C
:102D2000001B022802D90320BDE8F88F2868800123
:102D3000F4D40EE00128F7D06868226A00F48031EC
:102D4000914204D1616A00F47010884201D00120E0
:102D5000EAE70020E8E700000010024000004242DD
:102D6000800442421C0000200070004010B5401E4C
:102D7000B0F1807F01D3012010BD4FF0E0246061ED
:102D80000F21601701F061FC0020A0610720206185
:102D9000002010BD7047704770B590F83C20012AA4
:102DA00026D0012480F83C40022280F83D200368B0
:102DB0005A689D6822F070060A6832435A600D4BCB
:102DC00002689A4208D0B2F1804F05D00A4B9A426D
:102DD00002D00A4B9A4204D1496825F08003194376
:102DE000916080F83D40002180F83C10084670BD9D
:102DF000022070BD002C014000040040000800408B
:102E000010B5040003D094F83D0010B107E0012094
:102E100010BD002084F83C00204600F01FF802207E
:102E200084F83D00211D206801F0DCF8012084F8C1
:102E3000460084F83E0084F83F0084F8400084F89F
:102E4000410084F8420084F8430084F8440084F888
:102E5000450084F83D00002010BD000008B5006862
:102E60000B49884212D10B48816941F400618161AC
:102E70008069002200F40060009011461920FFF7DD
:102E8000D7FCBDE808401920FFF7C4BC08BD00000E
:102E9000002C01400010024090F83D10012901D0A3
:102EA00001207047022180F83D100168CA6842F095
:102EB0000102CA6000680B49884208D0B0F1804F17
:102EC00005D00949884202D00849884204D1816866
:102ED00001F00701062903D0016841F001010160FA
:102EE00000207047002C0140000400400008004012
:102EF00070B5044690F83C000025012817D0012643
:102F000084F83C60022084F83D002068826822F04A
:102F1000770222F47F4282600868502838D00DDCA6
:102F200020284FD005DC90B3102811D14AE00220B0
:102F300070BD302846D040280AD13BE060282FD011
:102F400070280DD0B0F5805F03D0B0F5005F12D0CF
:102F5000012584F83D60002084F83C00284670BDBF
:102F6000CB68D1E90121206801F085F820688168EB
:102F700041F0770109E0CB68D1E90121206801F037
:102F80007AF82068816841F480418160E1E719E0C6
:102F9000CA684968206801F023F95021206806E0DA
:102FA000CA684968206801F02CF96021206801F0A6
:102FB0006CF8CEE7CA684968206801F011F9402131
:102FC0002068F4E7226801461046F0E72DE9F04159
:102FD0000D46040003D094F83D0018B108E001202C
:102FE000BDE8F081002084F83C00204600F040F865
:102FF000022084F83D002068816844F20702914372
:103000008160211D206800F0EDFF226890689169C1
:10301000166A2B68AF69034340F20330814341EAEB
:103020000721A868EF6908434FF6FC418843E96827
:1030300040EA0720014328692F6A000140EA07306F
:10304000084369686D6926F0220646EA051529439A
:1030500093602268906154F8460B0162012004F8E5
:103060001F09E0752076E0762077A0750020B7E78D
:1030700000B585B000210091019102910391016892
:103080001A48B1F1804F1BD0194A914216D1C1693B
:1030900041F00401C161C16901F004010491816939
:1030A00041F0080181618069694600F008000490E0
:1030B000C02000900F4800BFFFF758FA05B000BDD0
:1030C000C16941F00101C161C16901F001010491CF
:1030D000816941F0040181618069694600F0040062
:1030E0000490032000900448E6E70000001002402E
:1030F00000080040000C01400008014070B590F845
:103100003E60044690F83F5090F8423090F84320DB
:10311000022021B104290ED0012E1BD114E0012E72
:1031200018D1012B16D184F83E0084F84200012208
:103130000021206820E0012D0CD1012A0AD184F859
:103140003F0084F8430014E0012D03D1012B01D18D
:10315000012A01D0012070BD84F83E0084F83F00B0
:1031600084F8420084F8430001220021206800F026
:1031700075FF01220421206800F070FF20680168BB
:1031800041F001010160002070BD70472DE9F04160
:1031900004460068C66805694FF00007A90713D503
:1031A000B10711D5F91E01610120207720688069DF
:1031B0008007204602D0FFF7E8FF04E000F0A4F803
:1031C000204600F049F92777680716D5700714D50F
:1031D00021686FF004000861022020772068806970
:1031E00010F4407F204602D0FFF7CFFF04E000F04C
:1031F0008BF8204600F030F92777280715D53007DF
:1032000013D521686FF0080008610420207720683A
:10321000C0698007204602D0FFF7B7FF04E000F046
:1032200073F8204600F018F92777E80616D5F0065F
:1032300014D521686FF010000861082020772068FD
:10324000C06910F4407F204602D0FFF79EFF04E0E3
:1032500000F05AF8204600F0FFF82777E80708D07A
:10326000F00706D021686FF001000861204600F0E9
:1032700043F9280608D5300606D521686FF080008E
:1032800008612046FFF786FD680608D5700606D55A
:1032900021686FF040000861204600F01BFAA80684
:1032A0000AD5B00608D521686FF0200008612046D5
:1032B000BDE8F041FFF76FBDBDE8F08100B585B016
:1032C0000021009101910291039100680B4988420D
:1032D00011D10B48816941F004018161806969461F
:1032E00000F004000490C0200090022001900390A0
:1032F0000448FFF73BF905B000BD000000040040A2
:103300000010024000080140704770B5044690F874
:103310003C0000260D4601280FD0012084F83C0017
:103320006AB1042A1DD0082A2FD00C2A3FD00126CA
:10333000002084F83C00304670BD022070BD20683B
:1033400000F0ACFE2068816941F0080181612068CD
:10335000816921F004018161206881692A69114332
:1033600011E0206800F0C2FE2068816941F400612C
:1033700081612068816921F48061816120688169AF
:103380002A6941EA02218161D2E7206800F0DAFE71
:103390002068C16941F00801C1612068C16921F05C
:1033A0000401C1612068C1692A69114311E02068E4
:1033B00000F0F4FE2068C16941F40061C161206839
:1033C000C16921F48061C1612068C1692A6941EA4B
:1033D0000221C161ACE710B5040003D094F83D00B0
:1033E00010B107E0012010BD002084F83C00204609
:1033F00000F01EF8022084F83D00211D206800F036
:10340000F1FD012084F8460084F83E0084F83F0076
:1034100084F8400084F8410084F8420084F84300B6
:1034200084F8440084F8450084F83D00002010BD75
:1034300008B500680649884208D10648C16941F0CC
:103440000201C161C06900F00200009008BD0000E7
:1034500000040040001002407047000010B5044610
:10346000022249B104290ED0082913D094F8410052
:10347000012816D0012010BD94F83E000128F9D192
:1034800084F83E200FE094F83F000128F2D184F840
:103490003F2008E094F840000128EBD184F8402058
:1034A00001E084F841200122206800F0D7FD0F4997
:1034B0002068884203D1426C42F400424264206892
:1034C000884208D0B0F1804F05D00949884202D027
:1034D0000849884204D1816801F00701062903D018
:1034E000016841F001010160002010BD002C014085
:1034F00000040040000800402DE9FF5F6649884253
:103500007ED16648664C6B4D00780022DFF89481CE
:10351000DFF89491DFF894A1DFF894B12F68266A60
:1035200002285DD001286BD163480068416A09B266
:10353000A1624262084601F0F3FA414601F0F2F955
:10354000494601F0EFF9514601F04AFB594601F0B6
:1035500047FB0146E062A946384601F03FFC0146C0
:10356000A061304601F070F95449206201F084F8FE
:10357000D4E90601074601F031FCE16801F030FBB7
:103580000546216A206901F02BFB06463946606931
:1035900001F026FB314601F057F9294601F054F9B4
:1035A000E761606201F024F907468846E06A01F0AD
:1035B0001FF905460E46D9F8000001F019F98DE80B
:1035C000E00102460B463EA000F068FF606A01F091
:1035D0006BFA01B2002004B0BDE8F05F00F048BC17
:1035E0003B480068416A09B2A1624262084601F0A4
:1035F00097FA414601F096F9494601F093F900E047
:1036000048E0514601F0ECFA594601F0E9FA01466A
:10361000E062A946384601F0E1FB0146A061304670
:1036200001F012F92549206201F026F8D4E90601DB
:10363000074601F0D3FBE16801F0D2FA0546216AA2
:10364000206901F0CDFA06463946606901F0C8FAF2
:10365000314601F0F9F8294601F0F6F8E7616062B9
:1036600001F0C6F807468846E06A01F0C1F8054651
:103670000E46D9F8000001F0BBF88DE8E0010246E3
:103680000B460FA000F00AFF606A01F00DFA01B2CC
:103690000120A0E7BDE8FF9FD0000020000000202F
:1036A000200000200000B6440000204100007A44C1
:1036B0000000704204000020A80100200000FA442D
:1036C000252E32662C252E32662C252E32660A00D7
:1036D00018010020704738B5044690F842002028B1
:1036E00001D0022038BD51B14AB101202063002031
:1036F0006063204600F046FF216B012901D00120C4
:1037000038BD21680A684968009121680C3151E888
:10371000002F42F0100241E80023002BF5D138BD04
:1037200070B50E4D0E46A84217D10E4C0A460C49F4
:103730006068FCF79CFED4E90110C4E90101012096
:1037400020806680802206492846FFF7C4FFE86B88
:103750000068016821F00401016070BDF0010020E3
:10376000500000202000002070470000F8B50168DC
:1037700004460868CA684B6910F00F0F4FF0000547
:1037800059D003F0010602F49077374365D0C107A2
:1037900005D0D10503D5616C41F001016164410799
:1037A00005D5D90703D0616C41F00201616481073E
:1037B00005D5D90703D0616C41F0040161640107AC
:1037C00007D502F02001314303D0616C41F00801BC
:1037D0006164616C00293AD0800604D5900602D558
:1037E000204600F0FAFD20684069616CC0F380104B
:1037F000090700D460B3204600F0BAFD2068406994
:10380000400621D52068143050E8001F21F0400107
:1038100040E80012002AF5D1E06BA8B16D49416380
:10382000E06BFEF747FD002811D0E06B416B01B063
:10383000BDE8F040084783060FD593060DD5204616
:10384000BDE8F84000F0C9BD2046FFF78DFFF8BD88
:103850002046FFF789FF6564F8BD266B2023012E03
:103860007CD1C6067AD5D60678D508684868009017
:1038700048694FF00206400640D5E16B0868406891
:103880000004000CE8D0A28D8242E5D9E085886969
:1038900020282DD020680C3050E8001F21F48071C2
:1038A00040E80012002AF5D12068143050E8001FCB
:1038B00021F0010140E80012002AF5D120681430FF
:1038C00050E8001F21F0400140E80012002AF5D125
:1038D00084F84230256320680C3050E8001F21F046
:1038E000100140E80012002AF5D1E06BFEF7BEFCA3
:1038F0006663A08DE18D401A81B22AE0A08DE18D32
:10390000401A81B2E08D0028A6D00029A4D02268F8
:103910000C3252E8000F20F4907042E80007002FAC
:10392000F5D12068143050E8002F22F0010240E861
:103930000027002FF5D184F84230256320680C3031
:1039400050E8002F22F0100240E80023002BF5D1B0
:1039500066632046FFF7E4FEF8BDFFE705062BD5BA
:10396000150629D594F841002128F5D1A068B0F5B5
:10397000805F01D12069B0B1206A411C21622168B9
:1039800000784860E08C401E0004000CE084E3D125
:103990002068C16821F08001C1602068C16841F0E1
:1039A0004001C160D8E7206A0088C0F30800486081
:1039B000206A801C2062E5E74006CDD55006CBD5B5
:1039C000CA68204622F04002CA6084F8413000F004
:1039D000E1F8C1E72742000870B5040004D094F86C
:1039E0004100002510B106E0012070BD84F8405070
:1039F000204600F023F8242084F841002068C168A4
:103A000021F40051C160204600F060FD206801698A
:103A100021F4904101612068416921F02A0141614E
:103A20002068C16841F40051C1606564202084F8B9
:103A3000410084F842006563002070BDF0B585B098
:103A400000240646009401940294039400682D49D2
:103A5000884254D12C48816941F480418161816957
:103A600001F480410491816941F004018161806920
:103A7000264D00F0040004904FF4007000900220E6
:103A800001900320039069462846FEF76FFD281534
:103A9000CDE90004694628460294FEF767FD1D4DF6
:103AA0001B488027C5E90004C5E902472C616C6109
:103AB000AC612846EC61FEF7F3FC08B1FEF7D4FBDD
:103AC000F5636E62134D12484435143801C5102059
:103AD00091C5104845F8104944306C61AC61EC6107
:103AE000FEF7DEFC08B1FEF7BFFBB563002211460E
:103AF00025206E62FEF79CFE2520FEF78BFE05B0AA
:103B0000F0BD0000003801400010024000080140F4
:103B100058000240380200207047704770B50446D4
:103B200090F84100202801D0022070BD49B342B373
:103B30002162A284E28400206064212384F8413061
:103B4000A56B114BAB62A56B104BEB62A56B104BD9
:103B50002B63A36B5863256813462A1DA06BFEF7E1
:103B6000CDFC21686FF0400008602068143050E8F8
:103B7000001F41F0800140E80012002AF5D100202A
:103B800070BD012070BD0000254300086743000898
:103B90003742000870477047FEE700000D4808B53F
:103BA000416941F0010141614069002200F00100DA
:103BB000009011460E20FEF73BFE0E20FEF72AFE77
:103BC000002211460F20FEF733FEBDE808400F200B
:103BD000FEF720BE001002402DE9F04186B000241F
:103BE00020480094019402940394816941F02001DB
:103BF0008161816901F020010491816941F0040132
:103C00008161816901F004010491816941F0080139
:103C100081618069144F00F0080004900022302177
:103C20003846FEF793FDDFF844800022032140462A
:103C3000FEF78CFD302001250226CDE90005CDE9F7
:103C4000024669463846FEF791FC0320CDE900059F
:103C5000CDE9024669464046FEF788FC06B0BDE85D
:103C6000F08100000010024000080140000C0140FB
:103C700010B586B00024184800940194029403946F
:103C800004941449059401604721C0E9011442F2EB
:103C90000F71C0E903148021C0E90541FFF7B0F8B6
:103CA00008B1FEF7E1FA4FF48050009069460A48E7
:103CB000FFF71EF908B1FEF7D7FA049404A90648E5
:103CC0000594FFF769F8002801D0FEF7CDFA06B099
:103CD00010BD0000002C0140D000002010B58CB0B9
:103CE00024216846FCF708FC0024154809944FF08D
:103CF00080410A94C0E900144FF6FF71C0E9024107
:103D0000046184610320CDE900040120CDE90204AF
:103D10000494CDE905400794694609480894FFF7E3
:103D200055F908B1FEF7A0FA099409A904480A94C4
:103D3000FFF732F8002801D0FEF796FA0CB010BD5C
:103D40001801002010B58AB0002407941C21684691
:103D50000894FCF7D1FB1B48194901604721C0E9D1
:103D6000011440F2E731C0E9031480218161FFF7BB
:103D700032FB08B1FEF778FA079407A911480894B6
:103D8000FFF70AF808B1FEF76FFA6020CDE90004EA
:103D90000294002269460B480494FFF7B6FA08B172
:103DA000FEF762FA042269460648FFF7AEFA08B148
:103DB000FEF75AFA0348FFF781FA0AB010BD000077
:103DC000000400406001002010B58CB0242168463A
:103DD000FCF792FB00241648099414490A94C0E9A0
:103DE00000144FF6FF71C0E90241046184610320B1
:103DF000CDE900040120CDE902040494CDE9054099
:103E0000079469460A480894FFF7E0F808B1FEF7FE
:103E10002BFA099409A906480A94FEF7BDFF002869
:103E200001D0FEF721FA0CB010BD000000080040E0
:103E3000A80100200C4810B50A4901604FF4E13197
:103E40004160002181600C22C160C0E904128161DF
:103E5000C161FFF7C1FD002803D0BDE81040FEF7A7
:103E600003BA10BD00380140F0010020FEE7000059
:103E700070B53B4C0D46012816D0002841D1394E73
:103E8000002D47DD4FF001024FF002013046FEF7F2
:103E90005DFC002201213046FEF758FC284600F068
:103EA0003FFE00F0FBFB49E02F4E002D11DD4FF0EF
:103EB00001024FF010013046FEF748FC002220219D
:103EC0003046FEF743FC284600F02AFE00F0E6FBF1
:103ED00013E017DA4FF000024FF010013046FEF702
:103EE00035FC012220213046FEF730FC284600F048
:103EF00017FE00F0D3FB80F0004000F0F1FD2168D8
:103F0000486370BD012210213046FEF71FFC0122DC
:103F100020211FE017DA4FF000024FF00201304677
:103F2000FEF714FC012211463046FEF70FFC28462E
:103F300000F0F6FD00F0B2FB80F0004000F0D0FD94
:103F40002168886370BD012202213046FEF7FEFB26
:103F5000012211463046BDE87040FEF7F7BB000075
:103F600060010020000C014000080140FEE770479E
:103F70007047FEF7F7BB30B58FB028216846FCF7D5
:103F8000BBFA14210AA8FCF7B7FA01210804CDE90D
:103F900000100024029402250491CDE907504FF44B
:103FA000E01009906846FEF751FD08B172B6FEE7D1
:103FB0000F20CDE90A054FF48060CDE90C400221C5
:103FC0000AA80E94FEF766FC002801D072B6FEE740
:103FD0000FB030BD704700000148FFF7D7B80000B0
:103FE000D0000020F0B50268194B1A4C1A4D4FF062
:103FF0008047984205D0B84203D0A04201D0A842E1
:1040000003D122F070064A683243984205D0B84284
:1040100003D0A04201D0A84203D122F44074CA6860
:1040200022434C6922F08002224302608A68C26205
:104030000A688262984201D10969016301214161E4
:104040000169C90703D0016921F001010161F0BDD7
:10405000002C0140000400400008004010B501F0B1
:104060001F030121046A99408C430462016A9A404B
:104070001143016210BD10B5846842EA032224F4A2
:104080007F440A432243826010BD826822F070029E
:104090000A4342F0070181607047000030B5036AAF
:1040A000026A22F0010202624268846924F0730508
:1040B0000C682C4323F002058B682B430A4DA84261
:1040C0000BD123F00805CB6822F440722B434D69D5
:1040D00023F0040315438A692A43426084614968D6
:1040E0004163036230BD0000002C014030B5026A1C
:1040F000036A23F010030362436884690D6824F4A3
:10410000E64444EA05248D6822F0200242EA0512C2
:104110000B4DA8420ED1CD6822F0800242EA051272
:104120004D6923F4406343EA85038D6922F0400220
:1041300043EA85034360846149688163026230BD5C
:10414000002C014030B5036A026A22F480720262D8
:104150004268C46923F4007324F073050C682C438F
:104160008D6843EA05230C4DA8420ED1CD6823F497
:10417000006343EA05234D6922F4405242EA0512E6
:104180008D6923F4806342EA05124260C461496884
:10419000C163036230BD0000002C014030B5046AE9
:1041A000026A22F4805202624268C3690D6823F4F5
:1041B000E64343EA05238D6824F4005444EA0534B9
:1041C000064DA84204D14D6922F4804242EA85128C
:1041D0004260C36149680164046230BD002C014043
:1041E00010B5036A046A24F001040462846924F0AF
:1041F000F00444EA021423F00A020A4384610262D2
:1042000010BD10B5036A046A24F0100404628469C6
:1042100023F0A00324F4704444EA023243EA01117B
:104220008261016210BD10B5406A0021C185C18460
:10423000FFF79AFA10BD70B5446A2068406994F897
:104240004110C0F3C0100025212904D118B1E58424
:10425000204600F0B4F82068406994F84210C0F39A
:104260008010222904D118B1E585204600F080F89D
:10427000606C40F0100060642046FFF775FA70BD76
:1042800010B50146406A096809684FF000028906C6
:104290002ED4C28501680C3151E8003F23F48073AD
:1042A00041E80034002CF5D10168143151E8003F99
:1042B00023F0010341E80034002CF5D101681431EA
:1042C00051E8003F23F0400341E80034002CF5D1D1
:1042D000202180F84210016B012909D101680C31BD
:1042E00051E8003F23F0100341E80034002CF5D1E1
:1042F0004263016B012902D0FFF70EFC10BD818DD6
:10430000FFF70EFA10BD10B5406A01214163016B41
:10431000012902D0FFF701FC10BD818D4908FFF78C
:10432000FFF910BD10B50146406A096809688906A1
:1043300016D40021C1840168143151E8002F22F005
:10434000800241E80023002BF5D101680C3151E8CF
:10435000002F42F0400241E80023002BF5D110BDB0
:10436000FFF718FC10BD10B5406AFFF714FC10BD34
:1043700001680C3151E8002F22F4907241E80023CB
:10438000002BF5D10168143151E8002F22F0010211
:1043900041E80023002BF5D1016B012909D1016807
:1043A0000C3151E8002F22F0100241E80023002BCD
:1043B000F5D1202180F84210002101637047016887
:1043C0000C3151E8002F22F0C00241E80023002BFD
:1043D000F5D1202180F84110704708B590F84210BF
:1043E000222901D0022008BD82684FF480539A42EE
:1043F00001D1016921B1816A9A421BD04AB10AE018
:104400000268816A5268C2F308020A80816A891CC4
:1044100008E0026972B10268526802F07F020A7015
:10442000816A491C8162C18D491E0904090CC1853C
:1044300003D01BE002685268F1E70168CA6822F005
:104440002002CA600168CA6822F48072CA600168EA
:104450004A6922F001024A61202180F842100021BD
:104460004163026B012A03D0FFF756FB002008BD11
:10447000016301680C3151E8002F22F0100241E87D
:104480000023002BF5D101680A68D20602D50A681C
:1044900049680091818DFFF743F9E7E70FB4802168
:1044A00010B503AB0748029AFBF7E4FE0548FBF79B
:1044B000BFFFC2B203490448FFF730FB10BC5DF8F0
:1044C00014FB0000C0020020F001002070B504467B
:1044D00000680169E26821F44051114301612169DA
:1044E000A0680843616908432168CA6841F20C6307
:1044F0009A430243CA6020684169A26921F440716D
:10450000114341611E492068884202D1FEF768FAD2
:1045100001E0FEF755FA00EBC00101EB0012606804
:1045200064218000B2FBF0F3B3FBF1F36FF01806E7
:104530007343B2FBF0F5B2FBF0F605EB83053223D3
:1045400003EB0515B5FBF1F5B6FBF1F605F0F0054B
:1045500005EB0615B2FBF0F6B2FBF0F0B0FBF1F0A4
:104560006FF01802504306EB800003EB0010B0FB25
:10457000F1F0216800F00F002844886070BD000051
:104580000038014038B58162044682850020134618
:104590006064222284F84220E56B1B4AAA62E56B24
:1045A0001A4AEA62E56B1A4A2A63E26B50630A46CA
:1045B0002168E06B091DFDF7A1FF206801684068D4
:1045C0000090206948B120680C3050E8001F41F489
:1045D000807140E80012002AF5D12068143050E8BC
:1045E000001F41F0010140E80012002AF5D12068C7
:1045F000143050E8001F41F0400140E80012002A4A
:10460000F5D1002038BD00008142000807430008B2
:10461000374200080148FFF7A9B80000F001002068
:10462000FEE7490050EAC12018BF04204A0D18BF18
:1046300040F0010040F2FF72B2EB515F08BF40F062
:104640000200012808BF052070470907090E00284D
:1046500004DB00F1E02080F80014704700F00F0048
:1046600000F1E02080F8141D704730380A2801D28C
:10467000012070470020704770B50C46064681F057
:10468000004500F079FB00D334462846214600F06F
:1046900073FB00D22C46204670BD00000449054A39
:1046A000884201DD084670479042FCD910467047A9
:1046B00000C0794400C079C4FEF75CF8FFF75BFCEA
:1046C000FFF78AFAFFF76AFAFFF73CFBFFF706FBF2
:1046D000FFF7B0FBFFF7CCFAFFF776FB00211F488E
:1046E000FEF7BCFE04211E48FEF708FD1D48FEF73C
:1046F000D3FB80221C491D48FEF7EDFF1B48C06B11
:104700000068016821F004010160DFF86480194F3E
:10471000194C1A4D002628880128FCD1B8F8001041
:10472000802900D37F213868134B46549B1C9A1E66
:1047300013A1FBF7B9FDE06002280CD12078012815
:1047400002D0022805D006E0608800F001FA60601F
:1047500001E06088A0602E80DDE70000600100209D
:1047600018010020D000002050000020F00100209F
:10477000220000202800002000000020200000204F
:10478000256868752C2568750000000010B50029A3
:104790000AD00878002807D005487844FDF732F998
:1047A000002801D0002010BD0248784410BD000050
:1047B0007A0800007208000010B500290AD00878B5
:1047C000002807D005487844FDF71CF9002801D0DF
:1047D000002010BD0248784410BD00006A080000A7
:1047E000620800000808A0F500114FEA3101704787
:1047F00043004FEAD30C4FEA3C0C43401FBF400735
:104800000CF1605113F0FE4F70471CF0006F03D1A4
:1048100000200CF0004170470CF0004343EA507058
:1048200010B540EACC0000F05CFA00BF0000009236
:104830004FEA0001FFF7D6BF4FF000414FF00000F4
:10484000A1F500217047000090EA010F48BF81F0F8
:10485000004100F1CA82421A3CBF801A89184FEA0F
:10486000D0524FF07F4C1CEA410FA2EBD15318BF3E
:104870009CEA026F00F03B804FF0004C4CEA0020B5
:104880004CEA012121FA03FC10EB0C0C1ED202F1C0
:10489000FF325FEA1C2040EBC25038BF70471CF06B
:1048A0007F0F4FEA400C18BFBCF17F4F38BF7047F5
:1048B000C3F12003994008BF20F00100BCF17F4FF5
:1048C00038BF7047A0F1C04000F051BA4FEA3C0039
:1048D000000A40EBC25028BF1CF0FF0F4FEA400C0B
:1048E000E6D018BFBCF17F4F38BF7047EAE79CEABB
:1048F000026F05D010EA5C0F08BF00F0004070475F
:1049000010B500F0EEF900BF64FBBE3E401058BF8A
:10491000C0F14040491058BFC1F140418142EFF31E
:10492000008070474FF47F0C1CEAD0121EBF1CEAB7
:10493000D11392EA0C0F93EA0C0F00F0858090EAF5
:10494000010F48BF42F4807240F4000C41F40000B3
:104950002CF07F4120F07F4000B58142A2EB0302A2
:104960000FF2081CACEB504EC0F100009EF800E0C6
:104970004FEA4E0E00FB0EFC38BF49004FEA2C1CDC
:1049800002F5FA020CFB0EF34FEACE1E4FEA112C91
:104990004FEAC1210EEB635E42EB22420EFB0CFCA0
:1049A0004FEA1C5300FB03114FEA112C4FEA01316F
:1049B0000EFB0CFC4FEADC4C00FB0C11C14228BF83
:1049C00009184CEB03335DF804EB10EB410143EBAA
:1049D000C250B2F57C0F38BF704729D512F0F00FE6
:1049E0001CBF00F1C04000F000407047008182838E
:1049F0008485868788898B8C8D8E8F9192939596EE
:104A000097999A9C9D9FA0A2A3A5A7A8AAACAEB077
:104A1000B2B3B5B7B9BCBEC0C2C5C7C9CCCED1D47C
:104A2000D7D9DCDFE2E6E9ECF0F3F7FAFE000000AC
:104A30004FEA400C0CF1807CBCF17E4F28BF7047E0
:104A4000B0F1C04000F093B990EA010F0CEAD11325
:104A500048BF42F48072624538BF634507D213F401
:104A60007F0F16D080EA010000F00040704710B5BB
:104A700000F037F9097EFC3E00F005B880EA01003D
:104A800000F00040704780EA010000F0004000F0B4
:104A90006EB912F47F0F04BF0248704780EA01002C
:104AA00000F065B90000C07F41000B0ED3F19E02FB
:104AB00008D950F400034FEA032323FA02F048BF59
:104AC0004042704710B500F00CF900BF49922480B5
:104AD000002070476FF0004282EA2000704700001B
:104AE000C10DD1F19E0206DB4FEA002343F00043E3
:104AF00023FA02F07047004207D54FEA4001B1F1B6
:104B0000FE4F02D24FF00000704710B500F0E9F8F8
:104B100049922480002070476FEA2000704700000F
:104B200010F0004148BF4042B0FA80F310FA03F29F
:104B3000C3F19D030BD051EAC35101EB1220530680
:104B400038BF704700F1010008BF20F00100704736
:104B5000B0FA80F310FA03F2C3F19D030AD0D9052D
:104B600001EB1220530638BF704700F1010008BF67
:104B700020F001007047000050EA010C00F11380A2
:104B80001CF5000F58BFBCF5000F01D488427047D8
:104B900007D710F5000F58BF11F5000F15D4884244
:104BA0007047894270471CF5000F04D5BCF5000F13
:104BB000F7D5814270474FF0807C1CEB400F38BF27
:104BC0001CEB410F01D28142704710B500F089F80B
:104BD000922449004FF000504FF08051FFF796BEED
:104BE0004FF47F0C1CEAD0121EBF1CEAD11392EACC
:104BF0000C0F93EA0C0F00F0478090EA010F48BFBA
:104C000042F480724FF0004C4CEA00204CEA012143
:104C100002EB0302A0FB0113A2F50002002918BF5A
:104C200043F001035B0028BF4FEA330342EB22420B
:104C30005FEA132C4CEBC2502EBFBCEB436FB2F5B6
:104C40007C0F70474FEA036CBCF1004F08BF20F0A7
:104C50000100B2F57C0F38BF70470BD582F0FF0220
:104C600012F5803FC8BF704700F1C040D8BF00F0C8
:104C70000040704700F5000C5FEA4C0C48BF7047DD
:104C8000B0F1C04000F073B890EA010F0CEAD11304
:104C900048BF42F48072624538BF634504D280EA5F
:104CA000010000F00040704710B500F01AF800BF96
:104CB0008900013E00F007B800F009B85FEA410C36
:104CC0005FEA1C6C08D080EA010000F050B85FEA8F
:104CD000400C5FEA1C6CF6D14FF00040A0F580005C
:104CE00070470EF1020E2EF0030E5EF8044B2442C4
:104CF00004D44FEA4102B2F17F4F11D84FEA40038A
:104D0000B3F17F4F0CD80ED14FEAD07CB2F17F4F78
:104D10000CEB4C0C0CF1020C08BF4CEBD17C04E00A
:104D20004FF0080C01E04FEAD17C0CEB4C0324FA65
:104D300003F404F00704B4F1040C06D20EEB840C67
:104D4000BDE810404CF0010C6047DFE80CF00708AC
:104D500002024FF00040A0F5800010BD084642005E
:104D600018BFD2F1807288BF00F0004010BDFF2153
:104D700041EAD050C005704751EA000C00F11380A1
:104D80001CF5000F58BFBCF5000F01D481427047DD
:104D900007D711F5000F58BF10F5000F15D4814249
:104DA0007047894270471CF5000F04D5BCF5000F11
:104DB000F7D5884270474FF0807C1CEB410F38BF1D
:104DC0001CEB400F01D28842704780EA010081EA63
:104DD000000180EA0100FFF7F8BE000090EA010F31
:104DE00048BF81F000413FF536AD421A04D882F049
:104DF0000042A0EB020011444FEAD0524FF07F4C2A
:104E00001CEA410FA2EBD15318BF9CEA026F4AD0B3
:104E10004FF0004C4CEA00204CEA012121FA03FC3F
:104E2000B0EB0C0C0FD412F0FE0F36D05FEA4C0042
:104E30001DD5001240EBC25038BF70471CF03F0F29
:104E400018BF70470BE0A2F101025FEA1C2040EBA3
:104E5000C25038BF70471CF07F0F18BF7047C3F1B6
:104E60002003994014BF401E20F0010070478008C5
:104E70004FEA122308BF7047B0FA80FCA2EB0C0285
:104E8000CCF1280C60FA0CF093EA122F04BF00EB6F
:104E9000C25070474FEAC3707047130A5FEADC10D4
:104EA00008BF7047F6E79CEA026F04D010EA5C0F77
:104EB00008BF0020704710B5FFF713FF40DFF63E34
:104EC00081F000407047FBF7F1BFFCF725B9010204
:104ED00002030405060708090A0B0C0D0E0F10103B
:104EE000000000000000000001020304060708099A
:104EF00000000000010203040000000000000000A8
:104F000030313233343536373839414243444546FF
:104F100040305800303132333435363738396162F9
:104F200063646566403078000400000800000000FB
:104F300000000002000100001030313233343536F9
:104F400037383961626364656678700030313233B6
:104F500034353637383941424344454658500000CD
:104F600002400000000000A000000000054000001A
:104F7000000000C8000000000C4000000000409C41
:104F800000000000194000000020BCBE000000002E
:104F900034400000BFC91B8E00000004B540000073
:104FA000504BCFD06607E2CF010000006C410000FB
:104FB0003E8251AADFEEA73401000000D942000072
:104FC000DCB5A0E23A301F97FFFFFFFFB4450000B9
:104FD000FD25A0C8E9A3C14FFFFFFFFFFF3F000071
:104FE0000000008000000000FF3F00000000008083
:104FF00000000000405100080000002050000000A8
:10500000280100089051000850000020500A0000BC
:10501000440100081C00000043000000F8FFFFFFEF
:105020000C0000000E0000000F0000002E00000029
:105030001001000043000000F8FFFFFF0040404067
:10504000404040404040414141414140404040405B
:105050004040404040404040404040404005020207
:1050600002020202020202020202020202202020C6
:105070002020202020202002020202020202909022
:105080009090909010101010101010101010101020
:105090001010101010101010020202020202888874
:1050A0008888888808080808080808080808080880
:1050B0000808080808080808020202024000000068
:1050C00000000000000000000000000000000000E0
:1050D00000000000000000000000000000000000D0
:1050E00000000000000000000000000000000000C0
:1050F00000000000000000000000000000000000B0
:10510000000000000000000000000000000000009F
:10511000000000000000000000000000000000008F
:10512000000000000000000000000000000000007F
:10513000000000000000000000000000000000006F
:10514000000000000000000000000000000000005F
:1051500001000000100000000000000000127A00B2
:105160000000000040030020C003002000000040B9
:105170000000A0400000A04100000000000000006E
:10518000000000000000000000000000000000001F
:04000005080000ED02
:00000001FF
